{
  "_format": "hh-sol-artifact-1",
  "contractName": "TOS",
  "sourceName": "contracts/tokens/TOS.sol",
  "abi": [
    {
      "inputs": [
        {
          "internalType": "string",
          "name": "name_",
          "type": "string"
        },
        {
          "internalType": "string",
          "name": "symbol_",
          "type": "string"
        },
        {
          "internalType": "string",
          "name": "version_",
          "type": "string"
        }
      ],
      "stateMutability": "nonpayable",
      "type": "constructor"
    },
    {
      "anonymous": false,
      "inputs": [
        {
          "indexed": true,
          "internalType": "address",
          "name": "owner",
          "type": "address"
        },
        {
          "indexed": true,
          "internalType": "address",
          "name": "spender",
          "type": "address"
        },
        {
          "indexed": false,
          "internalType": "uint256",
          "name": "value",
          "type": "uint256"
        }
      ],
      "name": "Approval",
      "type": "event"
    },
    {
      "anonymous": false,
      "inputs": [
        {
          "indexed": true,
          "internalType": "bytes32",
          "name": "role",
          "type": "bytes32"
        },
        {
          "indexed": true,
          "internalType": "bytes32",
          "name": "previousAdminRole",
          "type": "bytes32"
        },
        {
          "indexed": true,
          "internalType": "bytes32",
          "name": "newAdminRole",
          "type": "bytes32"
        }
      ],
      "name": "RoleAdminChanged",
      "type": "event"
    },
    {
      "anonymous": false,
      "inputs": [
        {
          "indexed": true,
          "internalType": "bytes32",
          "name": "role",
          "type": "bytes32"
        },
        {
          "indexed": true,
          "internalType": "address",
          "name": "account",
          "type": "address"
        },
        {
          "indexed": true,
          "internalType": "address",
          "name": "sender",
          "type": "address"
        }
      ],
      "name": "RoleGranted",
      "type": "event"
    },
    {
      "anonymous": false,
      "inputs": [
        {
          "indexed": true,
          "internalType": "bytes32",
          "name": "role",
          "type": "bytes32"
        },
        {
          "indexed": true,
          "internalType": "address",
          "name": "account",
          "type": "address"
        },
        {
          "indexed": true,
          "internalType": "address",
          "name": "sender",
          "type": "address"
        }
      ],
      "name": "RoleRevoked",
      "type": "event"
    },
    {
      "anonymous": false,
      "inputs": [
        {
          "indexed": true,
          "internalType": "address",
          "name": "from",
          "type": "address"
        },
        {
          "indexed": true,
          "internalType": "address",
          "name": "to",
          "type": "address"
        },
        {
          "indexed": false,
          "internalType": "uint256",
          "name": "value",
          "type": "uint256"
        }
      ],
      "name": "Transfer",
      "type": "event"
    },
    {
      "inputs": [],
      "name": "ADMIN_ROLE",
      "outputs": [
        {
          "internalType": "bytes32",
          "name": "",
          "type": "bytes32"
        }
      ],
      "stateMutability": "view",
      "type": "function"
    },
    {
      "inputs": [],
      "name": "BURNER_ROLE",
      "outputs": [
        {
          "internalType": "bytes32",
          "name": "",
          "type": "bytes32"
        }
      ],
      "stateMutability": "view",
      "type": "function"
    },
    {
      "inputs": [],
      "name": "DEFAULT_ADMIN_ROLE",
      "outputs": [
        {
          "internalType": "bytes32",
          "name": "",
          "type": "bytes32"
        }
      ],
      "stateMutability": "view",
      "type": "function"
    },
    {
      "inputs": [],
      "name": "DOMAIN_SEPARATOR",
      "outputs": [
        {
          "internalType": "bytes32",
          "name": "",
          "type": "bytes32"
        }
      ],
      "stateMutability": "view",
      "type": "function"
    },
    {
      "inputs": [],
      "name": "MINTER_ROLE",
      "outputs": [
        {
          "internalType": "bytes32",
          "name": "",
          "type": "bytes32"
        }
      ],
      "stateMutability": "view",
      "type": "function"
    },
    {
      "inputs": [],
      "name": "PERMIT_TYPEHASH",
      "outputs": [
        {
          "internalType": "bytes32",
          "name": "",
          "type": "bytes32"
        }
      ],
      "stateMutability": "view",
      "type": "function"
    },
    {
      "inputs": [],
      "name": "PROJECT_ADMIN_ROLE",
      "outputs": [
        {
          "internalType": "bytes32",
          "name": "",
          "type": "bytes32"
        }
      ],
      "stateMutability": "view",
      "type": "function"
    },
    {
      "inputs": [
        {
          "internalType": "address",
          "name": "account",
          "type": "address"
        }
      ],
      "name": "addAdmin",
      "outputs": [],
      "stateMutability": "nonpayable",
      "type": "function"
    },
    {
      "inputs": [
        {
          "internalType": "address",
          "name": "account",
          "type": "address"
        }
      ],
      "name": "addBurner",
      "outputs": [],
      "stateMutability": "nonpayable",
      "type": "function"
    },
    {
      "inputs": [
        {
          "internalType": "address",
          "name": "account",
          "type": "address"
        }
      ],
      "name": "addMinter",
      "outputs": [],
      "stateMutability": "nonpayable",
      "type": "function"
    },
    {
      "inputs": [
        {
          "internalType": "address",
          "name": "owner",
          "type": "address"
        },
        {
          "internalType": "address",
          "name": "spender",
          "type": "address"
        }
      ],
      "name": "allowance",
      "outputs": [
        {
          "internalType": "uint256",
          "name": "",
          "type": "uint256"
        }
      ],
      "stateMutability": "view",
      "type": "function"
    },
    {
      "inputs": [
        {
          "internalType": "address",
          "name": "spender",
          "type": "address"
        },
        {
          "internalType": "uint256",
          "name": "amount",
          "type": "uint256"
        }
      ],
      "name": "approve",
      "outputs": [
        {
          "internalType": "bool",
          "name": "",
          "type": "bool"
        }
      ],
      "stateMutability": "nonpayable",
      "type": "function"
    },
    {
      "inputs": [
        {
          "internalType": "address",
          "name": "account",
          "type": "address"
        }
      ],
      "name": "balanceOf",
      "outputs": [
        {
          "internalType": "uint256",
          "name": "",
          "type": "uint256"
        }
      ],
      "stateMutability": "view",
      "type": "function"
    },
    {
      "inputs": [
        {
          "internalType": "address",
          "name": "from",
          "type": "address"
        },
        {
          "internalType": "uint256",
          "name": "amount",
          "type": "uint256"
        }
      ],
      "name": "burn",
      "outputs": [
        {
          "internalType": "bool",
          "name": "",
          "type": "bool"
        }
      ],
      "stateMutability": "nonpayable",
      "type": "function"
    },
    {
      "inputs": [],
      "name": "decimals",
      "outputs": [
        {
          "internalType": "uint8",
          "name": "",
          "type": "uint8"
        }
      ],
      "stateMutability": "view",
      "type": "function"
    },
    {
      "inputs": [
        {
          "internalType": "address",
          "name": "spender",
          "type": "address"
        },
        {
          "internalType": "uint256",
          "name": "subtractedValue",
          "type": "uint256"
        }
      ],
      "name": "decreaseAllowance",
      "outputs": [
        {
          "internalType": "bool",
          "name": "",
          "type": "bool"
        }
      ],
      "stateMutability": "nonpayable",
      "type": "function"
    },
    {
      "inputs": [
        {
          "internalType": "bytes32",
          "name": "role",
          "type": "bytes32"
        }
      ],
      "name": "getRoleAdmin",
      "outputs": [
        {
          "internalType": "bytes32",
          "name": "",
          "type": "bytes32"
        }
      ],
      "stateMutability": "view",
      "type": "function"
    },
    {
      "inputs": [
        {
          "internalType": "bytes32",
          "name": "role",
          "type": "bytes32"
        },
        {
          "internalType": "uint256",
          "name": "index",
          "type": "uint256"
        }
      ],
      "name": "getRoleMember",
      "outputs": [
        {
          "internalType": "address",
          "name": "",
          "type": "address"
        }
      ],
      "stateMutability": "view",
      "type": "function"
    },
    {
      "inputs": [
        {
          "internalType": "bytes32",
          "name": "role",
          "type": "bytes32"
        }
      ],
      "name": "getRoleMemberCount",
      "outputs": [
        {
          "internalType": "uint256",
          "name": "",
          "type": "uint256"
        }
      ],
      "stateMutability": "view",
      "type": "function"
    },
    {
      "inputs": [
        {
          "internalType": "bytes32",
          "name": "role",
          "type": "bytes32"
        },
        {
          "internalType": "address",
          "name": "account",
          "type": "address"
        }
      ],
      "name": "grantRole",
      "outputs": [],
      "stateMutability": "nonpayable",
      "type": "function"
    },
    {
      "inputs": [
        {
          "internalType": "bytes32",
          "name": "role",
          "type": "bytes32"
        },
        {
          "internalType": "address",
          "name": "account",
          "type": "address"
        }
      ],
      "name": "hasRole",
      "outputs": [
        {
          "internalType": "bool",
          "name": "",
          "type": "bool"
        }
      ],
      "stateMutability": "view",
      "type": "function"
    },
    {
      "inputs": [
        {
          "internalType": "address",
          "name": "owner",
          "type": "address"
        },
        {
          "internalType": "address",
          "name": "spender",
          "type": "address"
        },
        {
          "internalType": "uint256",
          "name": "value",
          "type": "uint256"
        },
        {
          "internalType": "uint256",
          "name": "deadline",
          "type": "uint256"
        },
        {
          "internalType": "uint256",
          "name": "_nounce",
          "type": "uint256"
        }
      ],
      "name": "hashPermit",
      "outputs": [
        {
          "internalType": "bytes32",
          "name": "",
          "type": "bytes32"
        }
      ],
      "stateMutability": "view",
      "type": "function"
    },
    {
      "inputs": [
        {
          "internalType": "address",
          "name": "spender",
          "type": "address"
        },
        {
          "internalType": "uint256",
          "name": "addedValue",
          "type": "uint256"
        }
      ],
      "name": "increaseAllowance",
      "outputs": [
        {
          "internalType": "bool",
          "name": "",
          "type": "bool"
        }
      ],
      "stateMutability": "nonpayable",
      "type": "function"
    },
    {
      "inputs": [
        {
          "internalType": "address",
          "name": "account",
          "type": "address"
        }
      ],
      "name": "isAdmin",
      "outputs": [
        {
          "internalType": "bool",
          "name": "",
          "type": "bool"
        }
      ],
      "stateMutability": "view",
      "type": "function"
    },
    {
      "inputs": [
        {
          "internalType": "address",
          "name": "account",
          "type": "address"
        }
      ],
      "name": "isBurner",
      "outputs": [
        {
          "internalType": "bool",
          "name": "",
          "type": "bool"
        }
      ],
      "stateMutability": "view",
      "type": "function"
    },
    {
      "inputs": [
        {
          "internalType": "address",
          "name": "account",
          "type": "address"
        }
      ],
      "name": "isMinter",
      "outputs": [
        {
          "internalType": "bool",
          "name": "",
          "type": "bool"
        }
      ],
      "stateMutability": "view",
      "type": "function"
    },
    {
      "inputs": [
        {
          "internalType": "address",
          "name": "to",
          "type": "address"
        },
        {
          "internalType": "uint256",
          "name": "amount",
          "type": "uint256"
        }
      ],
      "name": "mint",
      "outputs": [
        {
          "internalType": "bool",
          "name": "",
          "type": "bool"
        }
      ],
      "stateMutability": "nonpayable",
      "type": "function"
    },
    {
      "inputs": [],
      "name": "name",
      "outputs": [
        {
          "internalType": "string",
          "name": "",
          "type": "string"
        }
      ],
      "stateMutability": "view",
      "type": "function"
    },
    {
      "inputs": [
        {
          "internalType": "address",
          "name": "",
          "type": "address"
        }
      ],
      "name": "nonces",
      "outputs": [
        {
          "internalType": "uint256",
          "name": "",
          "type": "uint256"
        }
      ],
      "stateMutability": "view",
      "type": "function"
    },
    {
      "inputs": [
        {
          "internalType": "address",
          "name": "owner",
          "type": "address"
        },
        {
          "internalType": "address",
          "name": "spender",
          "type": "address"
        },
        {
          "internalType": "uint256",
          "name": "value",
          "type": "uint256"
        },
        {
          "internalType": "uint256",
          "name": "deadline",
          "type": "uint256"
        },
        {
          "internalType": "uint8",
          "name": "v",
          "type": "uint8"
        },
        {
          "internalType": "bytes32",
          "name": "r",
          "type": "bytes32"
        },
        {
          "internalType": "bytes32",
          "name": "s",
          "type": "bytes32"
        }
      ],
      "name": "permit",
      "outputs": [],
      "stateMutability": "nonpayable",
      "type": "function"
    },
    {
      "inputs": [
        {
          "internalType": "address",
          "name": "account",
          "type": "address"
        }
      ],
      "name": "removeAdmin",
      "outputs": [],
      "stateMutability": "nonpayable",
      "type": "function"
    },
    {
      "inputs": [
        {
          "internalType": "address",
          "name": "account",
          "type": "address"
        }
      ],
      "name": "removeBurner",
      "outputs": [],
      "stateMutability": "nonpayable",
      "type": "function"
    },
    {
      "inputs": [
        {
          "internalType": "address",
          "name": "account",
          "type": "address"
        }
      ],
      "name": "removeMinter",
      "outputs": [],
      "stateMutability": "nonpayable",
      "type": "function"
    },
    {
      "inputs": [
        {
          "internalType": "bytes32",
          "name": "role",
          "type": "bytes32"
        },
        {
          "internalType": "address",
          "name": "account",
          "type": "address"
        }
      ],
      "name": "renounceRole",
      "outputs": [],
      "stateMutability": "nonpayable",
      "type": "function"
    },
    {
      "inputs": [
        {
          "internalType": "bytes32",
          "name": "role",
          "type": "bytes32"
        },
        {
          "internalType": "address",
          "name": "account",
          "type": "address"
        }
      ],
      "name": "revokeRole",
      "outputs": [],
      "stateMutability": "nonpayable",
      "type": "function"
    },
    {
      "inputs": [],
      "name": "symbol",
      "outputs": [
        {
          "internalType": "string",
          "name": "",
          "type": "string"
        }
      ],
      "stateMutability": "view",
      "type": "function"
    },
    {
      "inputs": [],
      "name": "totalSupply",
      "outputs": [
        {
          "internalType": "uint256",
          "name": "",
          "type": "uint256"
        }
      ],
      "stateMutability": "view",
      "type": "function"
    },
    {
      "inputs": [
        {
          "internalType": "address",
          "name": "recipient",
          "type": "address"
        },
        {
          "internalType": "uint256",
          "name": "amount",
          "type": "uint256"
        }
      ],
      "name": "transfer",
      "outputs": [
        {
          "internalType": "bool",
          "name": "",
          "type": "bool"
        }
      ],
      "stateMutability": "nonpayable",
      "type": "function"
    },
    {
      "inputs": [
        {
          "internalType": "address",
          "name": "newAdmin",
          "type": "address"
        }
      ],
      "name": "transferAdmin",
      "outputs": [],
      "stateMutability": "nonpayable",
      "type": "function"
    },
    {
      "inputs": [
        {
          "internalType": "address",
          "name": "sender",
          "type": "address"
        },
        {
          "internalType": "address",
          "name": "recipient",
          "type": "address"
        },
        {
          "internalType": "uint256",
          "name": "amount",
          "type": "uint256"
        }
      ],
      "name": "transferFrom",
      "outputs": [
        {
          "internalType": "bool",
          "name": "",
          "type": "bool"
        }
      ],
      "stateMutability": "nonpayable",
      "type": "function"
    },
    {
      "inputs": [
        {
          "internalType": "address",
          "name": "owner",
          "type": "address"
        },
        {
          "internalType": "address",
          "name": "spender",
          "type": "address"
        },
        {
          "internalType": "uint256",
          "name": "value",
          "type": "uint256"
        },
        {
          "internalType": "uint256",
          "name": "deadline",
          "type": "uint256"
        },
        {
          "internalType": "uint256",
          "name": "_nounce",
          "type": "uint256"
        },
        {
          "internalType": "bytes32",
          "name": "sigR",
          "type": "bytes32"
        },
        {
          "internalType": "bytes32",
          "name": "sigS",
          "type": "bytes32"
        },
        {
          "internalType": "uint8",
          "name": "sigV",
          "type": "uint8"
        }
      ],
      "name": "verify",
      "outputs": [
        {
          "internalType": "bool",
          "name": "",
          "type": "bool"
        }
      ],
      "stateMutability": "view",
      "type": "function"
    }
  ],
  "bytecode": "0x60806040523480156200001157600080fd5b50604051620027aa380380620027aa833981810160405260608110156200003757600080fd5b81019080805160405193929190846401000000008211156200005857600080fd5b9083019060208201858111156200006e57600080fd5b82516401000000008111828201881017156200008957600080fd5b82525081516020918201929091019080838360005b83811015620000b85781810151838201526020016200009e565b50505050905090810190601f168015620000e65780820380516001836020036101000a031916815260200191505b50604052602001805160405193929190846401000000008211156200010a57600080fd5b9083019060208201858111156200012057600080fd5b82516401000000008111828201881017156200013b57600080fd5b82525081516020918201929091019080838360005b838110156200016a57818101518382015260200162000150565b50505050905090810190601f168015620001985780820380516001836020036101000a031916815260200191505b5060405260200180516040519392919084640100000000821115620001bc57600080fd5b908301906020820185811115620001d257600080fd5b8251640100000000811182820188101715620001ed57600080fd5b82525081516020918201929091019080838360005b838110156200021c57818101518382015260200162000202565b50505050905090810190601f1680156200024a5780820380516001836020036101000a031916815260200191505b506040525050835184915083906200026a9060039060208501906200055b565b508051620002809060049060208401906200055b565b50506005805460ff19166012179055508251602080850191909120825183830120604080517f8b73c3c69bb8fe3d512ecc4cf759cc79239f7b179b0ffacaa9a75d522b39400f8186015280820193909352606083019190915246608083018190523060a0808501919091528251808503909101815260c090930190915281519190920120600755620003226000805160206200278a83398151915280620003f3565b6200035d7f9667e80708b6eeeb0053fa0cca44e028ff548e2a9f029edfeac87c118b08b7c86000805160206200278a833981519152620003f3565b620003876000805160206200276a8339815191526000805160206200278a833981519152620003f3565b620003a26000805160206200278a8339815191523362000445565b620003ce7f9667e80708b6eeeb0053fa0cca44e028ff548e2a9f029edfeac87c118b08b7c83362000445565b620003e96000805160206200276a8339815191523362000445565b5050505062000607565b600082815260066020526040808220600201549051839285917fbd79b86ffe0ab8e8776151514217cd7cacd52c909f66475c3af44e129f0b00ff9190a460009182526006602052604090912060020155565b62000451828262000455565b5050565b60008281526006602090815260409091206200047c9183906200154c620004d0821b17901c565b1562000451576200048c620004f0565b6001600160a01b0316816001600160a01b0316837f2f8788117e7eff1d82e926ec794901d17c78024a50270940304540a733656f0d60405160405180910390a45050565b6000620004e7836001600160a01b038416620004f4565b90505b92915050565b3390565b600062000502838362000543565b6200053a57508154600181810184556000848152602080822090930184905584548482528286019093526040902091909155620004ea565b506000620004ea565b60009081526001919091016020526040902054151590565b828054600181600116156101000203166002900490600052602060002090601f016020900481019282620005935760008555620005de565b82601f10620005ae57805160ff1916838001178555620005de565b82800160010185558215620005de579182015b82811115620005de578251825591602001919060010190620005c1565b50620005ec929150620005f0565b5090565b5b80821115620005ec5760008155600101620005f1565b61215380620006176000396000f3fe608060405234801561001057600080fd5b50600436106102535760003560e01c80637048027511610146578063a217fddf116100c3578063d505accf11610087578063d505accf14610791578063d5391393146107e2578063d547741f146107ea578063dcdd8a0414610816578063dd62ed3e14610858578063f44637ba1461088657610253565b8063a217fddf146106ee578063a457c2d7146106f6578063a9059cbb14610722578063aa271e1a1461074e578063ca15c8731461077457610253565b80639010d07c1161010a5780639010d07c1461062957806391d148541461066857806395d89b4114610694578063983b2d561461069c5780639dc29fac146106c257610253565b8063704802751461058957806370a08231146105af57806375829def146105d557806375b238fc146105fb5780637ecebe001461060357610253565b80633092afd5116101d4578063395093511161019857806339509351146104aa57806340c10f19146104d657806341c04d5e146105025780634334614a1461050a5780635025d1dd1461053057610253565b80633092afd51461042a57806330adf81f14610450578063313ce567146104585780633644e5151461047657806336568abe1461047e57610253565b806323b872dd1161021b57806323b872dd1461037d578063248a9ca3146103b357806324d7806c146103d0578063282c51f3146103f65780632f2ff15d146103fe57610253565b8063028468581461025857806306fdde0314610280578063095ea7b3146102fd5780631785f53c1461033d57806318160ddd14610363575b600080fd5b61027e6004803603602081101561026e57600080fd5b50356001600160a01b03166108ac565b005b61028861090b565b6040805160208082528351818301528351919283929083019185019080838360005b838110156102c25781810151838201526020016102aa565b50505050905090810190601f1680156102ef5780820380516001836020036101000a031916815260200191505b509250505060405180910390f35b6103296004803603604081101561031357600080fd5b506001600160a01b0381351690602001356109a1565b604080519115158252519081900360200190f35b61027e6004803603602081101561035357600080fd5b50356001600160a01b03166109bf565b61036b610a1b565b60408051918252519081900360200190f35b6103296004803603606081101561039357600080fd5b506001600160a01b03813581169160208101359091169060400135610a21565b61036b600480360360208110156103c957600080fd5b5035610aa8565b610329600480360360208110156103e657600080fd5b50356001600160a01b0316610abd565b61036b610ad7565b61027e6004803603604081101561041457600080fd5b50803590602001356001600160a01b0316610ae9565b61027e6004803603602081101561044057600080fd5b50356001600160a01b0316610b55565b61036b610bb1565b610460610bd5565b6040805160ff9092168252519081900360200190f35b61036b610bde565b61027e6004803603604081101561049457600080fd5b50803590602001356001600160a01b0316610be4565b610329600480360360408110156104c057600080fd5b506001600160a01b038135169060200135610c45565b610329600480360360408110156104ec57600080fd5b506001600160a01b038135169060200135610c93565b61036b610ce3565b6103296004803603602081101561052057600080fd5b50356001600160a01b0316610d07565b610329600480360361010081101561054757600080fd5b5080356001600160a01b039081169160208101359091169060408101359060608101359060808101359060a08101359060c08101359060e0013560ff16610d21565b61027e6004803603602081101561059f57600080fd5b50356001600160a01b0316610db5565b61036b600480360360208110156105c557600080fd5b50356001600160a01b0316610e11565b61027e600480360360208110156105eb57600080fd5b50356001600160a01b0316610e2c565b61036b610f4d565b61036b6004803603602081101561061957600080fd5b50356001600160a01b0316610f5f565b61064c6004803603604081101561063f57600080fd5b5080359060200135610f71565b604080516001600160a01b039092168252519081900360200190f35b6103296004803603604081101561067e57600080fd5b50803590602001356001600160a01b0316610f90565b610288610fa8565b61027e600480360360208110156106b257600080fd5b50356001600160a01b0316611009565b610329600480360360408110156106d857600080fd5b506001600160a01b038135169060200135611065565b61036b6110b5565b6103296004803603604081101561070c57600080fd5b506001600160a01b0381351690602001356110ba565b6103296004803603604081101561073857600080fd5b506001600160a01b038135169060200135611122565b6103296004803603602081101561076457600080fd5b50356001600160a01b0316611136565b61036b6004803603602081101561078a57600080fd5b5035611150565b61027e600480360360e08110156107a757600080fd5b506001600160a01b03813581169160208101359091169060408101359060608101359060ff6080820135169060a08101359060c00135611167565b61036b6113a7565b61027e6004803603604081101561080057600080fd5b50803590602001356001600160a01b03166113b9565b61036b600480360360a081101561082c57600080fd5b506001600160a01b03813581169160208101359091169060408101359060608101359060800135611412565b61036b6004803603604081101561086e57600080fd5b506001600160a01b03813581169160200135166114c5565b61027e6004803603602081101561089c57600080fd5b50356001600160a01b03166114f0565b6108b533610abd565b6108f05760405162461bcd60e51b8152600401808060200182810382526022815260200180611ee86022913960400191505060405180910390fd5b61090860008051602061207e833981519152826113b9565b50565b60038054604080516020601f60026000196101006001881615020190951694909404938401819004810282018101909252828152606093909290918301828280156109975780601f1061096c57610100808354040283529160200191610997565b820191906000526020600020905b81548152906001019060200180831161097a57829003601f168201915b5050505050905090565b60006109b56109ae611561565b8484611565565b5060015b92915050565b6109c833610abd565b610a035760405162461bcd60e51b8152600401808060200182810382526022815260200180611ee86022913960400191505060405180910390fd5b610908600080516020611fd483398151915282610be4565b60025490565b6000610a2e848484611651565b610a9e84610a3a611561565b610a9985604051806060016040528060288152602001611fac602891396001600160a01b038a16600090815260016020526040812090610a78611561565b6001600160a01b03168152602081019190915260400160002054919061179a565b611565565b5060019392505050565b60009081526006602052604090206002015490565b60006109b9600080516020611fd483398151915283610f90565b60008051602061207e83398151915281565b600082815260066020526040902060020154610b0c90610b07611561565b610f90565b610b475760405162461bcd60e51b815260040180806020018281038252602f815260200180611e75602f913960400191505060405180910390fd5b610b518282611831565b5050565b610b5e33610abd565b610b995760405162461bcd60e51b8152600401808060200182810382526022815260200180611ee86022913960400191505060405180910390fd5b610908600080516020611f0a833981519152826113b9565b7f6e71edae12b1b97f4d1f60370fef10105fa2faae0126114a169c64845d6126c981565b60055460ff1690565b60075481565b610bec611561565b6001600160a01b0316816001600160a01b031614610c3b5760405162461bcd60e51b815260040180806020018281038252602f8152602001806120ef602f913960400191505060405180910390fd5b610b51828261189a565b60006109b5610c52611561565b84610a998560016000610c63611561565b6001600160a01b03908116825260208083019390935260409182016000908120918c168152925290205490611903565b6000610c9e33611136565b610cd95760405162461bcd60e51b815260040180806020018281038252602c81526020018061209e602c913960400191505060405180910390fd5b6109b5838361195d565b7f52eafc11f6f81f86878bffd31109a0d92f37506527754f00788853ff9f63b13081565b60006109b960008051602061207e83398151915283610f90565b60006001610d328a8a8a8a8a611412565b83868660405160008152602001604052604051808581526020018460ff1681526020018381526020018281526020019450505050506020604051602081039080840390855afa158015610d89573d6000803e3d6000fd5b505050602060405103516001600160a01b0316896001600160a01b031614905098975050505050505050565b610dbe33610abd565b610df95760405162461bcd60e51b8152600401808060200182810382526022815260200180611ee86022913960400191505060405180910390fd5b610908600080516020611fd483398151915282610ae9565b6001600160a01b031660009081526020819052604090205490565b610e3533610abd565b610e705760405162461bcd60e51b8152600401808060200182810382526022815260200180611ee86022913960400191505060405180910390fd5b6001600160a01b038116610ec6576040805162461bcd60e51b815260206004820152601860248201527741636365737369626c653a207a65726f206164647265737360401b604482015290519081900360640190fd5b336001600160a01b0382161415610f1d576040805162461bcd60e51b815260206004820152601660248201527520b1b1b2b9b9b4b136329d1039b0b6b29030b236b4b760511b604482015290519081900360640190fd5b610f35600080516020611fd483398151915282610ae9565b610908600080516020611fd483398151915233610be4565b600080516020611fd483398151915281565b60086020526000908152604090205481565b6000828152600660205260408120610f899083611a3b565b9392505050565b6000828152600660205260408120610f899083611a47565b60048054604080516020601f60026000196101006001881615020190951694909404938401819004810282018101909252828152606093909290918301828280156109975780601f1061096c57610100808354040283529160200191610997565b61101233610abd565b61104d5760405162461bcd60e51b8152600401808060200182810382526022815260200180611ee86022913960400191505060405180910390fd5b610908600080516020611f0a83398151915282610ae9565b600061107033610d07565b6110ab5760405162461bcd60e51b815260040180806020018281038252602c815260200180611f50602c913960400191505060405180910390fd5b6109b58383611a5c565b600081565b60006109b56110c7611561565b84610a99856040518060600160405280602581526020016120ca60259139600160006110f1611561565b6001600160a01b03908116825260208083019390935260409182016000908120918d1681529252902054919061179a565b60006109b561112f611561565b8484611651565b60006109b9600080516020611f0a83398151915283610f90565b60008181526006602052604081206109b990611b46565b428410156111b2576040805162461bcd60e51b81526020600482015260136024820152721513d4ce881c195c9b5a5d0811561412549151606a1b604482015290519081900360640190fd5b6001600160a01b03871660009081526008602052604081208054600181019091556111e4908990899089908990611412565b9050866001600160a01b0316886001600160a01b0316141561124d576040805162461bcd60e51b815260206004820152601e60248201527f544f533a20617070726f76616c20746f2063757272656e74206f776e65720000604482015290519081900360640190fd5b600060018286868660405160008152602001604052604051808581526020018460ff1681526020018381526020018281526020019450505050506020604051602081039080840390855afa1580156112a9573d6000803e3d6000fd5b5050604051601f1901519150506001600160a01b03811661130a576040805162461bcd60e51b8152602060048201526016602482015275544f533a20496e76616c6964207369676e617475726560501b604482015290519081900360640190fd5b6113376040518060400160405280600b81526020016a616464726573733a20257360a81b81525082611b51565b886001600160a01b0316816001600160a01b031614611391576040805162461bcd60e51b81526020600482015260116024820152701513d4ce88155b985d5d1a1bdc9a5e9959607a1b604482015290519081900360640190fd5b61139c898989611565565b505050505050505050565b600080516020611f0a83398151915281565b6000828152600660205260409020600201546113d790610b07611561565b610c3b5760405162461bcd60e51b8152600401808060200182810382526030815260200180611f7c6030913960400191505060405180910390fd5b600754604080517f6e71edae12b1b97f4d1f60370fef10105fa2faae0126114a169c64845d6126c96020808301919091526001600160a01b03808a1683850152881660608301526080820187905260a0820185905260c08083018790528351808403909101815260e08301845280519082012061190160f01b6101008401526101028301949094526101228083019490945282518083039094018452610142909101909152815191012095945050505050565b6001600160a01b03918216600090815260016020908152604080832093909416825291909152205490565b6114f933610abd565b6115345760405162461bcd60e51b8152600401808060200182810382526022815260200180611ee86022913960400191505060405180910390fd5b61090860008051602061207e83398151915282610ae9565b6000610f89836001600160a01b038416611c08565b3390565b6001600160a01b0383166115aa5760405162461bcd60e51b815260040180806020018281038252602481526020018061205a6024913960400191505060405180910390fd5b6001600160a01b0382166115ef5760405162461bcd60e51b8152600401808060200182810382526022815260200180611ec66022913960400191505060405180910390fd5b6001600160a01b03808416600081815260016020908152604080832094871680845294825291829020859055815185815291517f8c5be1e5ebec7d5bd14f71427d1e84f3dd0314c0f7b2291e5b200ac8c7c3b9259281900390910190a3505050565b6001600160a01b0383166116965760405162461bcd60e51b81526004018080602001828103825260258152602001806120356025913960400191505060405180910390fd5b6001600160a01b0382166116db5760405162461bcd60e51b8152600401808060200182810382526023815260200180611e526023913960400191505060405180910390fd5b6116e6838383611c52565b61172381604051806060016040528060268152602001611f2a602691396001600160a01b038616600090815260208190526040902054919061179a565b6001600160a01b0380851660009081526020819052604080822093909355908416815220546117529082611903565b6001600160a01b03808416600081815260208181526040918290209490945580518581529051919392871692600080516020611ff483398151915292918290030190a3505050565b600081848411156118295760405162461bcd60e51b81526004018080602001828103825283818151815260200191508051906020019080838360005b838110156117ee5781810151838201526020016117d6565b50505050905090810190601f16801561181b5780820380516001836020036101000a031916815260200191505b509250505060405180910390fd5b505050900390565b6000828152600660205260409020611849908261154c565b15610b5157611856611561565b6001600160a01b0316816001600160a01b0316837f2f8788117e7eff1d82e926ec794901d17c78024a50270940304540a733656f0d60405160405180910390a45050565b60008281526006602052604090206118b29082611c57565b15610b51576118bf611561565b6001600160a01b0316816001600160a01b0316837ff6391f5c32d9c69d2a47ea670b442974b53935d1edc7fd64eb21e047a839171b60405160405180910390a45050565b600082820183811015610f89576040805162461bcd60e51b815260206004820152601b60248201527f536166654d6174683a206164646974696f6e206f766572666c6f770000000000604482015290519081900360640190fd5b6001600160a01b0382166119b8576040805162461bcd60e51b815260206004820152601f60248201527f45524332303a206d696e7420746f20746865207a65726f206164647265737300604482015290519081900360640190fd5b6119c460008383611c52565b6002546119d19082611903565b6002556001600160a01b0382166000908152602081905260409020546119f79082611903565b6001600160a01b038316600081815260208181526040808320949094558351858152935192939192600080516020611ff48339815191529281900390910190a35050565b6000610f898383611c6c565b6000610f89836001600160a01b038416611cd0565b6001600160a01b038216611aa15760405162461bcd60e51b81526004018080602001828103825260218152602001806120146021913960400191505060405180910390fd5b611aad82600083611c52565b611aea81604051806060016040528060228152602001611ea4602291396001600160a01b038516600090815260208190526040902054919061179a565b6001600160a01b038316600090815260208190526040902055600254611b109082611ce8565b6002556040805182815290516000916001600160a01b03851691600080516020611ff48339815191529181900360200190a35050565b60006109b982611d2a565b610b5182826040516024018080602001836001600160a01b03168152602001828103825284818151815260200191508051906020019080838360005b83811015611ba5578181015183820152602001611b8d565b50505050905090810190601f168015611bd25780820380516001836020036101000a031916815260200191505b5060408051601f198184030181529190526020810180516001600160e01b031663319af33360e01b1790529350611d2e92505050565b6000611c148383611cd0565b611c4a575081546001818101845560008481526020808220909301849055845484825282860190935260409020919091556109b9565b5060006109b9565b505050565b6000610f89836001600160a01b038416611d45565b81546000908210611cae5760405162461bcd60e51b8152600401808060200182810382526022815260200180611e306022913960400191505060405180910390fd5b826000018281548110611cbd57fe5b9060005260206000200154905092915050565b60009081526001919091016020526040902054151590565b6000610f8983836040518060400160405280601e81526020017f536166654d6174683a207375627472616374696f6e206f766572666c6f77000081525061179a565b5490565b61090881611d3d611e0b611e2c565b63ffffffff16565b60008181526001830160205260408120548015611e015783546000198083019190810190600090879083908110611d7857fe5b9060005260206000200154905080876000018481548110611d9557fe5b600091825260208083209091019290925582815260018981019092526040902090840190558654879080611dc557fe5b600190038181906000526020600020016000905590558660010160008781526020019081526020016000206000905560019450505050506109b9565b60009150506109b9565b60006a636f6e736f6c652e6c6f679050600080835160208501845afa505050565b9056fe456e756d657261626c655365743a20696e646578206f7574206f6620626f756e647345524332303a207472616e7366657220746f20746865207a65726f2061646472657373416363657373436f6e74726f6c3a2073656e646572206d75737420626520616e2061646d696e20746f206772616e7445524332303a206275726e20616d6f756e7420657863656564732062616c616e636545524332303a20617070726f766520746f20746865207a65726f206164647265737341636365737369626c653a2043616c6c6572206973206e6f7420616e2061646d696ef0887ba65ee2024ea881d91b74c2450ef19e1557f03bed3ea9f16b037cbe2dc945524332303a207472616e7366657220616d6f756e7420657863656564732062616c616e636541636365737369626c65506c7573436f6d6d6f6e3a2043616c6c6572206973206e6f742061206275726e6572416363657373436f6e74726f6c3a2073656e646572206d75737420626520616e2061646d696e20746f207265766f6b6545524332303a207472616e7366657220616d6f756e74206578636565647320616c6c6f77616e6365df8b4c520ffe197c5343c6f5aec59570151ef9a492f2c624fd45ddde6135ec42ddf252ad1be2c89b69c2b068fc378daa952ba7f163c4a11628f55a4df523b3ef45524332303a206275726e2066726f6d20746865207a65726f206164647265737345524332303a207472616e736665722066726f6d20746865207a65726f206164647265737345524332303a20617070726f76652066726f6d20746865207a65726f20616464726573739667e80708b6eeeb0053fa0cca44e028ff548e2a9f029edfeac87c118b08b7c841636365737369626c65506c7573436f6d6d6f6e3a2043616c6c6572206973206e6f742061206d696e74657245524332303a2064656372656173656420616c6c6f77616e63652062656c6f77207a65726f416363657373436f6e74726f6c3a2063616e206f6e6c792072656e6f756e636520726f6c657320666f722073656c66a264697066735822122046986af2cf1f8e2225d7039cc663a9a88ac745748e9e22cfe835b0f54c901f8f64736f6c63430007060033f0887ba65ee2024ea881d91b74c2450ef19e1557f03bed3ea9f16b037cbe2dc9df8b4c520ffe197c5343c6f5aec59570151ef9a492f2c624fd45ddde6135ec42",
  "linkReferences": {},
  "deployedLinkReferences": {}
}