{
  "_format": "hh-sol-artifact-1",
  "contractName": "Stake1Vault",
  "sourceName": "contracts/stake/Stake1Vault.sol",
  "abi": [
    {
      "inputs": [],
      "stateMutability": "nonpayable",
      "type": "constructor"
    },
    {
      "anonymous": false,
      "inputs": [
        {
          "indexed": true,
          "internalType": "address",
          "name": "from",
          "type": "address"
        },
        {
          "indexed": false,
          "internalType": "address",
          "name": "to",
          "type": "address"
        },
        {
          "indexed": false,
          "internalType": "uint256",
          "name": "amount",
          "type": "uint256"
        }
      ],
      "name": "ClaimedReward",
      "type": "event"
    },
    {
      "anonymous": false,
      "inputs": [],
      "name": "ClosedSale",
      "type": "event"
    },
    {
      "anonymous": false,
      "inputs": [
        {
          "indexed": true,
          "internalType": "bytes32",
          "name": "role",
          "type": "bytes32"
        },
        {
          "indexed": true,
          "internalType": "bytes32",
          "name": "previousAdminRole",
          "type": "bytes32"
        },
        {
          "indexed": true,
          "internalType": "bytes32",
          "name": "newAdminRole",
          "type": "bytes32"
        }
      ],
      "name": "RoleAdminChanged",
      "type": "event"
    },
    {
      "anonymous": false,
      "inputs": [
        {
          "indexed": true,
          "internalType": "bytes32",
          "name": "role",
          "type": "bytes32"
        },
        {
          "indexed": true,
          "internalType": "address",
          "name": "account",
          "type": "address"
        },
        {
          "indexed": true,
          "internalType": "address",
          "name": "sender",
          "type": "address"
        }
      ],
      "name": "RoleGranted",
      "type": "event"
    },
    {
      "anonymous": false,
      "inputs": [
        {
          "indexed": true,
          "internalType": "bytes32",
          "name": "role",
          "type": "bytes32"
        },
        {
          "indexed": true,
          "internalType": "address",
          "name": "account",
          "type": "address"
        },
        {
          "indexed": true,
          "internalType": "address",
          "name": "sender",
          "type": "address"
        }
      ],
      "name": "RoleRevoked",
      "type": "event"
    },
    {
      "inputs": [],
      "name": "ADMIN_ROLE",
      "outputs": [
        {
          "internalType": "bytes32",
          "name": "",
          "type": "bytes32"
        }
      ],
      "stateMutability": "view",
      "type": "function"
    },
    {
      "inputs": [],
      "name": "BURNER_ROLE",
      "outputs": [
        {
          "internalType": "bytes32",
          "name": "",
          "type": "bytes32"
        }
      ],
      "stateMutability": "view",
      "type": "function"
    },
    {
      "inputs": [],
      "name": "DEFAULT_ADMIN_ROLE",
      "outputs": [
        {
          "internalType": "bytes32",
          "name": "",
          "type": "bytes32"
        }
      ],
      "stateMutability": "view",
      "type": "function"
    },
    {
      "inputs": [],
      "name": "MINTER_ROLE",
      "outputs": [
        {
          "internalType": "bytes32",
          "name": "",
          "type": "bytes32"
        }
      ],
      "stateMutability": "view",
      "type": "function"
    },
    {
      "inputs": [],
      "name": "PROJECT_ADMIN_ROLE",
      "outputs": [
        {
          "internalType": "bytes32",
          "name": "",
          "type": "bytes32"
        }
      ],
      "stateMutability": "view",
      "type": "function"
    },
    {
      "inputs": [
        {
          "internalType": "address",
          "name": "account",
          "type": "address"
        }
      ],
      "name": "addAdmin",
      "outputs": [],
      "stateMutability": "nonpayable",
      "type": "function"
    },
    {
      "inputs": [
        {
          "internalType": "string",
          "name": "_name",
          "type": "string"
        },
        {
          "internalType": "address",
          "name": "stakeContract",
          "type": "address"
        },
        {
          "internalType": "uint256",
          "name": "periodBlocks",
          "type": "uint256"
        }
      ],
      "name": "addSubVaultOfStake",
      "outputs": [],
      "stateMutability": "nonpayable",
      "type": "function"
    },
    {
      "inputs": [],
      "name": "balanceTOSAvailableAmount",
      "outputs": [
        {
          "internalType": "uint256",
          "name": "",
          "type": "uint256"
        }
      ],
      "stateMutability": "view",
      "type": "function"
    },
    {
      "inputs": [],
      "name": "blockTotalReward",
      "outputs": [
        {
          "internalType": "uint256",
          "name": "",
          "type": "uint256"
        }
      ],
      "stateMutability": "view",
      "type": "function"
    },
    {
      "inputs": [
        {
          "internalType": "address",
          "name": "_to",
          "type": "address"
        },
        {
          "internalType": "uint256",
          "name": "_amount",
          "type": "uint256"
        }
      ],
      "name": "canClaim",
      "outputs": [
        {
          "internalType": "bool",
          "name": "",
          "type": "bool"
        }
      ],
      "stateMutability": "view",
      "type": "function"
    },
    {
      "inputs": [],
      "name": "cap",
      "outputs": [
        {
          "internalType": "uint256",
          "name": "",
          "type": "uint256"
        }
      ],
      "stateMutability": "view",
      "type": "function"
    },
    {
      "inputs": [
        {
          "internalType": "uint256",
          "name": "_cap",
          "type": "uint256"
        }
      ],
      "name": "changeCap",
      "outputs": [],
      "stateMutability": "nonpayable",
      "type": "function"
    },
    {
      "inputs": [
        {
          "internalType": "address",
          "name": "_to",
          "type": "address"
        },
        {
          "internalType": "uint256",
          "name": "_amount",
          "type": "uint256"
        }
      ],
      "name": "claim",
      "outputs": [
        {
          "internalType": "bool",
          "name": "",
          "type": "bool"
        }
      ],
      "stateMutability": "nonpayable",
      "type": "function"
    },
    {
      "inputs": [],
      "name": "closeSale",
      "outputs": [],
      "stateMutability": "nonpayable",
      "type": "function"
    },
    {
      "inputs": [],
      "name": "defiAddr",
      "outputs": [
        {
          "internalType": "address",
          "name": "",
          "type": "address"
        }
      ],
      "stateMutability": "view",
      "type": "function"
    },
    {
      "inputs": [
        {
          "internalType": "bytes32",
          "name": "role",
          "type": "bytes32"
        }
      ],
      "name": "getRoleAdmin",
      "outputs": [
        {
          "internalType": "bytes32",
          "name": "",
          "type": "bytes32"
        }
      ],
      "stateMutability": "view",
      "type": "function"
    },
    {
      "inputs": [
        {
          "internalType": "bytes32",
          "name": "role",
          "type": "bytes32"
        },
        {
          "internalType": "uint256",
          "name": "index",
          "type": "uint256"
        }
      ],
      "name": "getRoleMember",
      "outputs": [
        {
          "internalType": "address",
          "name": "",
          "type": "address"
        }
      ],
      "stateMutability": "view",
      "type": "function"
    },
    {
      "inputs": [
        {
          "internalType": "bytes32",
          "name": "role",
          "type": "bytes32"
        }
      ],
      "name": "getRoleMemberCount",
      "outputs": [
        {
          "internalType": "uint256",
          "name": "",
          "type": "uint256"
        }
      ],
      "stateMutability": "view",
      "type": "function"
    },
    {
      "inputs": [
        {
          "internalType": "bytes32",
          "name": "role",
          "type": "bytes32"
        },
        {
          "internalType": "address",
          "name": "account",
          "type": "address"
        }
      ],
      "name": "grantRole",
      "outputs": [],
      "stateMutability": "nonpayable",
      "type": "function"
    },
    {
      "inputs": [
        {
          "internalType": "bytes32",
          "name": "role",
          "type": "bytes32"
        },
        {
          "internalType": "address",
          "name": "account",
          "type": "address"
        }
      ],
      "name": "hasRole",
      "outputs": [
        {
          "internalType": "bool",
          "name": "",
          "type": "bool"
        }
      ],
      "stateMutability": "view",
      "type": "function"
    },
    {
      "inputs": [],
      "name": "infos",
      "outputs": [
        {
          "internalType": "address[2]",
          "name": "",
          "type": "address[2]"
        },
        {
          "internalType": "uint256",
          "name": "",
          "type": "uint256"
        },
        {
          "internalType": "uint256",
          "name": "",
          "type": "uint256"
        },
        {
          "internalType": "uint256[3]",
          "name": "",
          "type": "uint256[3]"
        },
        {
          "internalType": "uint256",
          "name": "",
          "type": "uint256"
        },
        {
          "internalType": "bool",
          "name": "",
          "type": "bool"
        }
      ],
      "stateMutability": "view",
      "type": "function"
    },
    {
      "inputs": [
        {
          "internalType": "address",
          "name": "account",
          "type": "address"
        }
      ],
      "name": "isAdmin",
      "outputs": [
        {
          "internalType": "bool",
          "name": "",
          "type": "bool"
        }
      ],
      "stateMutability": "view",
      "type": "function"
    },
    {
      "inputs": [],
      "name": "migratedL2",
      "outputs": [
        {
          "internalType": "bool",
          "name": "",
          "type": "bool"
        }
      ],
      "stateMutability": "view",
      "type": "function"
    },
    {
      "inputs": [
        {
          "internalType": "uint256",
          "name": "",
          "type": "uint256"
        }
      ],
      "name": "orderedEndBlocks",
      "outputs": [
        {
          "internalType": "uint256",
          "name": "",
          "type": "uint256"
        }
      ],
      "stateMutability": "view",
      "type": "function"
    },
    {
      "inputs": [],
      "name": "orderedEndBlocksAll",
      "outputs": [
        {
          "internalType": "uint256[]",
          "name": "",
          "type": "uint256[]"
        }
      ],
      "stateMutability": "view",
      "type": "function"
    },
    {
      "inputs": [],
      "name": "pauseProxy",
      "outputs": [
        {
          "internalType": "bool",
          "name": "",
          "type": "bool"
        }
      ],
      "stateMutability": "view",
      "type": "function"
    },
    {
      "inputs": [],
      "name": "paytoken",
      "outputs": [
        {
          "internalType": "address",
          "name": "",
          "type": "address"
        }
      ],
      "stateMutability": "view",
      "type": "function"
    },
    {
      "inputs": [],
      "name": "realEndBlock",
      "outputs": [
        {
          "internalType": "uint256",
          "name": "",
          "type": "uint256"
        }
      ],
      "stateMutability": "view",
      "type": "function"
    },
    {
      "inputs": [
        {
          "internalType": "address",
          "name": "account",
          "type": "address"
        }
      ],
      "name": "removeAdmin",
      "outputs": [],
      "stateMutability": "nonpayable",
      "type": "function"
    },
    {
      "inputs": [
        {
          "internalType": "bytes32",
          "name": "role",
          "type": "bytes32"
        },
        {
          "internalType": "address",
          "name": "account",
          "type": "address"
        }
      ],
      "name": "renounceRole",
      "outputs": [],
      "stateMutability": "nonpayable",
      "type": "function"
    },
    {
      "inputs": [
        {
          "internalType": "bytes32",
          "name": "role",
          "type": "bytes32"
        },
        {
          "internalType": "address",
          "name": "account",
          "type": "address"
        }
      ],
      "name": "revokeRole",
      "outputs": [],
      "stateMutability": "nonpayable",
      "type": "function"
    },
    {
      "inputs": [],
      "name": "saleClosed",
      "outputs": [
        {
          "internalType": "bool",
          "name": "",
          "type": "bool"
        }
      ],
      "stateMutability": "view",
      "type": "function"
    },
    {
      "inputs": [],
      "name": "saleStartBlock",
      "outputs": [
        {
          "internalType": "uint256",
          "name": "",
          "type": "uint256"
        }
      ],
      "stateMutability": "view",
      "type": "function"
    },
    {
      "inputs": [
        {
          "internalType": "address",
          "name": "_defiAddr",
          "type": "address"
        }
      ],
      "name": "setDefiAddr",
      "outputs": [],
      "stateMutability": "nonpayable",
      "type": "function"
    },
    {
      "inputs": [
        {
          "internalType": "address",
          "name": "_tos",
          "type": "address"
        }
      ],
      "name": "setTOS",
      "outputs": [],
      "stateMutability": "nonpayable",
      "type": "function"
    },
    {
      "inputs": [
        {
          "internalType": "uint256",
          "name": "",
          "type": "uint256"
        }
      ],
      "name": "stakeAddresses",
      "outputs": [
        {
          "internalType": "address",
          "name": "",
          "type": "address"
        }
      ],
      "stateMutability": "view",
      "type": "function"
    },
    {
      "inputs": [],
      "name": "stakeAddressesAll",
      "outputs": [
        {
          "internalType": "address[]",
          "name": "",
          "type": "address[]"
        }
      ],
      "stateMutability": "view",
      "type": "function"
    },
    {
      "inputs": [],
      "name": "stakeEndBlock",
      "outputs": [
        {
          "internalType": "uint256",
          "name": "",
          "type": "uint256"
        }
      ],
      "stateMutability": "view",
      "type": "function"
    },
    {
      "inputs": [
        {
          "internalType": "uint256",
          "name": "",
          "type": "uint256"
        }
      ],
      "name": "stakeEndBlockTotal",
      "outputs": [
        {
          "internalType": "uint256",
          "name": "",
          "type": "uint256"
        }
      ],
      "stateMutability": "view",
      "type": "function"
    },
    {
      "inputs": [
        {
          "internalType": "address",
          "name": "",
          "type": "address"
        }
      ],
      "name": "stakeInfos",
      "outputs": [
        {
          "internalType": "string",
          "name": "name",
          "type": "string"
        },
        {
          "internalType": "uint256",
          "name": "startBlock",
          "type": "uint256"
        },
        {
          "internalType": "uint256",
          "name": "endBlock",
          "type": "uint256"
        },
        {
          "internalType": "uint256",
          "name": "balance",
          "type": "uint256"
        },
        {
          "internalType": "uint256",
          "name": "totalRewardAmount",
          "type": "uint256"
        },
        {
          "internalType": "uint256",
          "name": "claimRewardAmount",
          "type": "uint256"
        }
      ],
      "stateMutability": "view",
      "type": "function"
    },
    {
      "inputs": [],
      "name": "stakeStartBlock",
      "outputs": [
        {
          "internalType": "uint256",
          "name": "",
          "type": "uint256"
        }
      ],
      "stateMutability": "view",
      "type": "function"
    },
    {
      "inputs": [],
      "name": "stakeType",
      "outputs": [
        {
          "internalType": "uint256",
          "name": "",
          "type": "uint256"
        }
      ],
      "stateMutability": "view",
      "type": "function"
    },
    {
      "inputs": [],
      "name": "tos",
      "outputs": [
        {
          "internalType": "address",
          "name": "",
          "type": "address"
        }
      ],
      "stateMutability": "view",
      "type": "function"
    },
    {
      "inputs": [
        {
          "internalType": "address",
          "name": "_account",
          "type": "address"
        }
      ],
      "name": "totalRewardAmount",
      "outputs": [
        {
          "internalType": "uint256",
          "name": "",
          "type": "uint256"
        }
      ],
      "stateMutability": "view",
      "type": "function"
    },
    {
      "inputs": [
        {
          "internalType": "address",
          "name": "newAdmin",
          "type": "address"
        }
      ],
      "name": "transferAdmin",
      "outputs": [],
      "stateMutability": "nonpayable",
      "type": "function"
    },
    {
      "inputs": [
        {
          "internalType": "uint256",
          "name": "_amount",
          "type": "uint256"
        }
      ],
      "name": "withdrawReward",
      "outputs": [],
      "stateMutability": "nonpayable",
      "type": "function"
    },
    {
      "stateMutability": "payable",
      "type": "receive"
    }
  ],
  "bytecode": "0x608060405234801561001057600080fd5b50612fb9806100206000396000f3fe6080604052600436106102115760003560e01c80630962ccfc1461023c578063153099d01461025e5780631785f53c1461029457806320027275146102b4578063248a9ca3146102c957806324d7806c146102e9578063282c51f314610316578063294f5fa31461032b5780632f2ff15d14610358578063355274ea1461037857806336568abe1461038d5780633a76eb37146103ad57806340c2ce86146103c257806340fc14f7146103e257806341c04d5e1461040257806343b0934a146104175780634b5e7cd51461042c578063523a3f08146104415780635f1bd62a1461046157806363a8fd891461048157806366b2d5271461049657806370480275146104ab57806375829def146104cb57806375b238fc146104eb578063800edb9d1461050057806389f395de146105205780639010d07c1461053557806391d148541461055557806398da0b61146105755780639a88be2f146105955780639d84ca35146105bc578063a1f5f50e146105d1578063a217fddf146105e6578063aad3ec96146105fb578063b03dc5141461061b578063b8c766b814610630578063b97af0db14610645578063c1b422fd1461065a578063ca15c8731461067c578063cbdeb6c01461069c578063d007e896146106bc578063d105bf85146106de578063d5391393146106f3578063d547741f14610708578063dfbf9def14610728578063ee55efee1461075a57610237565b366102375760405162461bcd60e51b815260040161022e90612b43565b60405180910390fd5b600080fd5b34801561024857600080fd5b5061025c610257366004612645565b61076f565b005b34801561026a57600080fd5b5061027e6102793660046125dd565b6109da565b60405161028b9190612867565b60405180910390f35b3480156102a057600080fd5b5061025c6102af36600461255a565b6109fb565b3480156102c057600080fd5b5061027e610a5a565b3480156102d557600080fd5b5061027e6102e43660046125dd565b610a60565b3480156102f557600080fd5b5061030961030436600461255a565b610a78565b60405161028b919061285c565b34801561032257600080fd5b5061027e610a98565b34801561033757600080fd5b5061034b6103463660046125dd565b610abc565b60405161028b9190612723565b34801561036457600080fd5b5061025c6103733660046125f5565b610ae6565b34801561038457600080fd5b5061027e610b4d565b34801561039957600080fd5b5061025c6103a83660046125f5565b610b53565b3480156103b957600080fd5b5061027e610bb4565b3480156103ce57600080fd5b5061025c6103dd36600461255a565b610bba565b3480156103ee57600080fd5b5061025c6103fd36600461255a565b610c46565b34801561040e57600080fd5b5061027e610cee565b34801561042357600080fd5b5061034b610d12565b34801561043857600080fd5b5061027e610d21565b34801561044d57600080fd5b5061025c61045c3660046125dd565b610d27565b34801561046d57600080fd5b5061027e61047c3660046125dd565b610f80565b34801561048d57600080fd5b50610309610f92565b3480156104a257600080fd5b5061027e610f9b565b3480156104b757600080fd5b5061025c6104c636600461255a565b611021565b3480156104d757600080fd5b5061025c6104e636600461255a565b61107d565b3480156104f757600080fd5b5061027e61119e565b34801561050c57600080fd5b5061025c61051b3660046125dd565b6111b0565b34801561052c57600080fd5b5061034b611227565b34801561054157600080fd5b5061034b610550366004612624565b611236565b34801561056157600080fd5b506103096105703660046125f5565b611255565b34801561058157600080fd5b50610309610590366004612592565b61126d565b3480156105a157600080fd5b506105aa6113cf565b60405161028b96959493929190612750565b3480156105c857600080fd5b5061034b611448565b3480156105dd57600080fd5b50610309611457565b3480156105f257600080fd5b5061027e611465565b34801561060757600080fd5b50610309610616366004612592565b61146a565b34801561062757600080fd5b5061027e6116c6565b34801561063c57600080fd5b506103096116cc565b34801561065157600080fd5b5061027e6116d5565b34801561066657600080fd5b5061066f6116db565b60405161028b9190612824565b34801561068857600080fd5b5061027e6106973660046125dd565b611733565b3480156106a857600080fd5b5061027e6106b736600461255a565b61174a565b3480156106c857600080fd5b506106d1611768565b60405161028b91906127d7565b3480156106ea57600080fd5b5061027e6117c9565b3480156106ff57600080fd5b5061027e6117cf565b34801561071457600080fd5b5061025c6107233660046125f5565b6117f3565b34801561073457600080fd5b5061074861074336600461255a565b61184c565b60405161028b96959493929190612870565b34801561076657600080fd5b5061025c61190b565b61077833610a78565b6107b35760405162461bcd60e51b8152600401808060200182810382526022815260200180612ec26022913960400191505060405180910390fd5b6001600160a01b038216158015906107cd57506000600354115b80156107d95750600081115b6107f55760405162461bcd60e51b815260040161022e90612991565b60055443106108165760405162461bcd60e51b815260040161022e90612919565b60095460ff16156108395760405162461bcd60e51b815260040161022e90612b11565b816001600160a01b03166343b0934a6040518163ffffffff1660e01b815260040160206040518083038186803b15801561087257600080fd5b505afa158015610886573d6000803e3d6000fd5b505050506040513d601f19601f820116820180604052508101906108aa9190612576565b6002546001600160a01b039081169116146108d75760405162461bcd60e51b815260040161022e90612c59565b6001600160a01b0382166000908152600d602052604090206001810154156109115760405162461bcd60e51b815260040161022e90612cdc565b600c805460018101825560009182527fdf6966c971051c3d54ec59162606531493a51404a002842f56009d7e5cf4a8c70180546001600160a01b0319166001600160a01b0386161790556005546109689084611f88565b855190915061097d9083906020880190612472565b5060055460018301556002820181905560065481111561099d5760068190555b5050600654600e80546001810182556000919091527fbb7b4a454dc3493923482f07822329ed19e8244eff582cc204f8554c3620c3fd0155505050565b600e81815481106109ea57600080fd5b600091825260209091200154905081565b610a0433610a78565b610a3f5760405162461bcd60e51b8152600401808060200182810382526022815260200180612ec26022913960400191505060405180910390fd5b610a57600080516020612f3583398151915282610b53565b50565b60045481565b6000818152602081905260409020600201545b919050565b6000610a92600080516020612f3583398151915283611255565b92915050565b7f9667e80708b6eeeb0053fa0cca44e028ff548e2a9f029edfeac87c118b08b7c881565b600c8181548110610acc57600080fd5b6000918252602090912001546001600160a01b0316905081565b600082815260208190526040902060020154610b0490610570611fe0565b610b3f5760405162461bcd60e51b815260040180806020018281038252602f815260200180612e93602f913960400191505060405180910390fd5b610b498282611fe4565b5050565b60035481565b610b5b611fe0565b6001600160a01b0316816001600160a01b031614610baa5760405162461bcd60e51b815260040180806020018281038252602f815260200180612f55602f913960400191505060405180910390fd5b610b49828261204d565b60065481565b610bc333610a78565b610bfe5760405162461bcd60e51b8152600401808060200182810382526022815260200180612ec26022913960400191505060405180910390fd5b6001600160a01b038116610c245760405162461bcd60e51b815260040161022e906129d9565b600180546001600160a01b0319166001600160a01b0392909216919091179055565b610c4f33610a78565b610c8a5760405162461bcd60e51b8152600401808060200182810382526022815260200180612ec26022913960400191505060405180910390fd5b6001600160a01b03811615801590610cb05750600b546001600160a01b03828116911614155b610ccc5760405162461bcd60e51b815260040161022e90612bed565b600b80546001600160a01b0319166001600160a01b0392909216919091179055565b7f52eafc11f6f81f86878bffd31109a0d92f37506527754f00788853ff9f63b13081565b6002546001600160a01b031681565b60055481565b610d3033610a78565b610d6b5760405162461bcd60e51b8152600401808060200182810382526022815260200180612ec26022913960400191505060405180910390fd5b60095460ff16610d8d5760405162461bcd60e51b815260040161022e90612b71565b6000805b600c54811015610e2e57610e24600d6000600c8481548110610daf57fe5b60009182526020808320909101546001600160a01b03168352820192909252604001812060050154600c80549192610e1e92600d929087908110610def57fe5b60009182526020808320909101546001600160a01b031683528201929092526040019020600401548590611f88565b906120b6565b9150600101610d91565b506001546040516370a0823160e01b81526000916001600160a01b0316906370a0823190610e60903090600401612723565b60206040518083038186803b158015610e7857600080fd5b505afa158015610e8c573d6000803e3d6000fd5b505050506040513d601f19601f82011682018060405250810190610eb091906126f4565b9050610ebc8284611f88565b811015610edb5760405162461bcd60e51b815260040161022e90612d46565b60015460405163a9059cbb60e01b81526001600160a01b039091169063a9059cbb90610f0d9033908790600401612737565b602060405180830381600087803b158015610f2757600080fd5b505af1158015610f3b573d6000803e3d6000fd5b505050506040513d601f19601f82011682018060405250810190610f5f91906125bd565b610f7b5760405162461bcd60e51b815260040161022e90612dae565b505050565b600f6020526000908152604090205481565b60115460ff1681565b6001546040516370a0823160e01b81526000916001600160a01b0316906370a0823190610fcc903090600401612723565b60206040518083038186803b158015610fe457600080fd5b505afa158015610ff8573d6000803e3d6000fd5b505050506040513d601f19601f8201168201806040525081019061101c91906126f4565b905090565b61102a33610a78565b6110655760405162461bcd60e51b8152600401808060200182810382526022815260200180612ec26022913960400191505060405180910390fd5b610a57600080516020612f3583398151915282610ae6565b61108633610a78565b6110c15760405162461bcd60e51b8152600401808060200182810382526022815260200180612ec26022913960400191505060405180910390fd5b6001600160a01b038116611117576040805162461bcd60e51b815260206004820152601860248201527741636365737369626c653a207a65726f206164647265737360401b604482015290519081900360640190fd5b336001600160a01b038216141561116e576040805162461bcd60e51b815260206004820152601660248201527520b1b1b2b9b9b4b136329d1039b0b6b29030b236b4b760511b604482015290519081900360640190fd5b611186600080516020612f3583398151915282610ae6565b610a57600080516020612f3583398151915233610b53565b600080516020612f3583398151915281565b6111b933610a78565b6111f45760405162461bcd60e51b8152600401808060200182810382526022815260200180612ec26022913960400191505060405180910390fd5b60008111801561120657508060035414155b6112225760405162461bcd60e51b815260040161022e90612a61565b600355565b6001546001600160a01b031681565b600082815260208190526040812061124e90836120f8565b9392505050565b600082815260208190526040812061124e9083612104565b60095460009060ff166112925760405162461bcd60e51b815260040161022e90612c90565b6001546040516370a0823160e01b81526000916001600160a01b0316906370a08231906112c3903090600401612723565b60206040518083038186803b1580156112db57600080fd5b505afa1580156112ef573d6000803e3d6000fd5b505050506040513d601f19601f8201168201806040525081019061131391906126f4565b9050828110156113355760405162461bcd60e51b815260040161022e90612a0d565b6001600160a01b0384166000908152600d60205260409020600181015461136e5760405162461bcd60e51b815260040161022e90612e24565b60008160040154116113925760405162461bcd60e51b815260040161022e9061295b565b60058101546113a19085611f88565b816004015410156113c45760405162461bcd60e51b815260040161022e906128e4565b506001949350505050565b6113d76124fe565b6000806113e261251c565b50506040805180820182526002546001600160a01b039081168252600b5416602080830191909152600354600a54845160608101865260045481526005549381019390935260065494830194909452600854600954939791965093945090929160ff1690565b600b546001600160a01b031681565b601154610100900460ff1681565b600081565b60095460009060ff16801561147f5750600082115b61149b5760405162461bcd60e51b815260040161022e90612c90565b6001546040516370a0823160e01b81526000916001600160a01b0316906370a08231906114cc903090600401612723565b60206040518083038186803b1580156114e457600080fd5b505afa1580156114f8573d6000803e3d6000fd5b505050506040513d601f19601f8201168201806040525081019061151c91906126f4565b90508281101561153e5760405162461bcd60e51b815260040161022e90612d77565b336000908152600d60205260409020600181015461156e5760405162461bcd60e51b815260040161022e90612d10565b60008160040154116115925760405162461bcd60e51b815260040161022e90612ba7565b60058101546115a19085611f88565b816004015410156115c45760405162461bcd60e51b815260040161022e90612de3565b60058101546115d39085611f88565b600582015560015460405163a9059cbb60e01b81526001600160a01b039091169063a9059cbb9061160a9088908890600401612737565b602060405180830381600087803b15801561162457600080fd5b505af1158015611638573d6000803e3d6000fd5b505050506040513d601f19601f8201168201806040525081019061165c91906125bd565b6116785760405162461bcd60e51b815260040161022e90612a97565b336001600160a01b03167faee3654837b73cc93e61b5d33f82d45b1df4dbe682913819f5ce40de23518e7286866040516116b3929190612737565b60405180910390a2506001949350505050565b60075481565b60095460ff1681565b600a5481565b6060600e80548060200260200160405190810160405280929190818152602001828054801561172957602002820191906000526020600020905b815481526020019060010190808311611715575b5050505050905090565b6000818152602081905260408120610a9290612119565b6001600160a01b03166000908152600d602052604090206004015490565b6060600c80548060200260200160405190810160405280929190818152602001828054801561172957602002820191906000526020600020905b81546001600160a01b031681526001909101906020018083116117a2575050505050905090565b60085481565b7ff0887ba65ee2024ea881d91b74c2450ef19e1557f03bed3ea9f16b037cbe2dc981565b60008281526020819052604090206002015461181190610570611fe0565b610baa5760405162461bcd60e51b8152600401808060200182810382526030815260200180612ee46030913960400191505060405180910390fd5b600d6020908152600091825260409182902080548351601f600260001961010060018616150201909316929092049182018490048402810184019094528084529092918391908301828280156118e35780601f106118b8576101008083540402835291602001916118e3565b820191906000526020600020905b8154815290600101906020018083116118c657829003601f168201915b5050505050908060010154908060020154908060030154908060040154908060050154905086565b60095460ff161561192e5760405162461bcd60e51b815260040161022e90612c24565b600060035411801561194257506000600554115b80156119515750600654600554105b801561195e575060055443115b61197a5760405162461bcd60e51b815260040161022e90612ace565b600c546119995760405162461bcd60e51b815260040161022e90612a31565b60065460075560005b600c54811015611b21576000600d6000600c84815481106119bf57fe5b60009182526020808320909101546001600160a01b039081168452908301939093526040909101902060025490925016611a2057600c8281548110611a0057fe5b6000918252602090912001546001600160a01b0316316003820155611ad1565b600254600c80546000926001600160a01b0316916370a082319186908110611a4457fe5b6000918252602090912001546040516001600160e01b031960e084901b168152611a7a916001600160a01b031690600401612723565b60206040518083038186803b158015611a9257600080fd5b505afa158015611aa6573d6000803e3d6000fd5b505050506040513d601f19601f82011682018060405250810190611aca91906126f4565b6003830155505b600381015415611b1857600d6000600c8481548110611aec57fe5b60009182526020808320909101546001600160a01b031683528201929092526040019020600201546007555b506001016119a2565b50611b45611b3c6005546007546120b690919063ffffffff16565b60035490612124565b6008556000805b600c54811015611f4e576000600d6000600c8481548110611b6957fe5b60009182526020808320909101546001600160a01b0316835282019290925260400181209150805b600c54811015611c2c578260020154600d6000600c8481548110611bb157fe5b60009182526020808320909101546001600160a01b0316835282019290925260400190206002015410611c2457611c21600d6000600c8481548110611bf257fe5b60009182526020808320909101546001600160a01b031683528201929092526040019020600301548390611f88565b91505b600101611b91565b5060075482600201541115611c42575050611f46565b60028201546000908152600f60205260409020819055611c628482611f88565b93506000835b8015611df5576000600f6000600d6000600c8681548110611c8557fe5b60009182526020808320909101546001600160a01b0316835282810193909352604091820181206002015484529183019390935291019020541115611dec57611de9611de2600f6000600d6000600c8781548110611cdf57fe5b9060005260206000200160009054906101000a90046001600160a01b03166001600160a01b03166001600160a01b0316815260200190815260200160002060020154815260200190815260200160002054611ddc8760030154611dd6600854611dd6600d6000600c60018c0381548110611d5557fe5b9060005260206000200160009054906101000a90046001600160a01b03166001600160a01b03166001600160a01b0316815260200190815260200160002060020154600d6000600c8c81548110611da857fe5b60009182526020808320909101546001600160a01b03168352820192909252604001902060020154906120b6565b90612163565b90612124565b8390611f88565b91505b60001901611c68565b506000600f6000600d6000600c600081548110611e0e57fe5b60009182526020808320909101546001600160a01b0316835282810193909352604091820181206002015484529183019390935291019020541115611f3b57611f38611f31600f6000600d6000600c600081548110611e6957fe5b9060005260206000200160009054906101000a90046001600160a01b03166001600160a01b03166001600160a01b0316815260200190815260200160002060020154815260200190815260200160002054611ddc8660030154611dd6600854611dd6600d6000600c600081548110611edd57fe5b9060005260206000200160009054906101000a90046001600160a01b03166001600160a01b03166001600160a01b0316815260200190815260200160002060010154600d6000600c600081548110611da857fe5b8290611f88565b90505b600490920191909155505b600101611b4c565b506009805460ff191660011790556040517fc5b08164caddd376836c1274d424a6a993b43d0225bb894c5b9e2a1e91e4bf5c90600090a150565b60008282018381101561124e576040805162461bcd60e51b815260206004820152601b60248201527a536166654d6174683a206164646974696f6e206f766572666c6f7760281b604482015290519081900360640190fd5b3390565b6000828152602081905260409020611ffc90826121bc565b15610b4957612009611fe0565b6001600160a01b0316816001600160a01b0316837f2f8788117e7eff1d82e926ec794901d17c78024a50270940304540a733656f0d60405160405180910390a45050565b600082815260208190526040902061206590826121d1565b15610b4957612072611fe0565b6001600160a01b0316816001600160a01b0316837ff6391f5c32d9c69d2a47ea670b442974b53935d1edc7fd64eb21e047a839171b60405160405180910390a45050565b600061124e83836040518060400160405280601e81526020017f536166654d6174683a207375627472616374696f6e206f766572666c6f7700008152506121e6565b600061124e838361227d565b600061124e836001600160a01b0384166122e1565b6000610a92826122f9565b600061124e83836040518060400160405280601a815260200179536166654d6174683a206469766973696f6e206279207a65726f60301b8152506122fd565b60008261217257506000610a92565b8282028284828161217f57fe5b041461124e5760405162461bcd60e51b8152600401808060200182810382526021815260200180612f146021913960400191505060405180910390fd5b600061124e836001600160a01b038416612362565b600061124e836001600160a01b0384166123ac565b600081848411156122755760405162461bcd60e51b81526004018080602001828103825283818151815260200191508051906020019080838360005b8381101561223a578181015183820152602001612222565b50505050905090810190601f1680156122675780820380516001836020036101000a031916815260200191505b509250505060405180910390fd5b505050900390565b815460009082106122bf5760405162461bcd60e51b8152600401808060200182810382526022815260200180612e716022913960400191505060405180910390fd5b8260000182815481106122ce57fe5b9060005260206000200154905092915050565b60009081526001919091016020526040902054151590565b5490565b6000818361234c5760405162461bcd60e51b815260206004820181815283516024840152835190928392604490910191908501908083836000831561223a578181015183820152602001612222565b50600083858161235857fe5b0495945050505050565b600061236e83836122e1565b6123a457508154600181810184556000848152602080822090930184905584548482528286019093526040902091909155610a92565b506000610a92565b6000818152600183016020526040812054801561246857835460001980830191908101906000908790839081106123df57fe5b90600052602060002001549050808760000184815481106123fc57fe5b60009182526020808320909101929092558281526001898101909252604090209084019055865487908061242c57fe5b60019003818190600052602060002001600090559055866001016000878152602001908152602001600020600090556001945050505050610a92565b6000915050610a92565b828054600181600116156101000203166002900490600052602060002090601f0160209004810192826124a857600085556124ee565b82601f106124c157805160ff19168380011785556124ee565b828001600101855582156124ee579182015b828111156124ee5782518255916020019190600101906124d3565b506124fa92915061253a565b5090565b60405180604001604052806002906020820280368337509192915050565b60405180606001604052806003906020820280368337509192915050565b5b808211156124fa576000815560010161253b565b8035610a7381612e5b565b60006020828403121561256b578081fd5b813561124e81612e5b565b600060208284031215612587578081fd5b815161124e81612e5b565b600080604083850312156125a4578081fd5b82356125af81612e5b565b946020939093013593505050565b6000602082840312156125ce578081fd5b8151801515811461124e578182fd5b6000602082840312156125ee578081fd5b5035919050565b60008060408385031215612607578182fd5b82359150602083013561261981612e5b565b809150509250929050565b60008060408385031215612636578182fd5b50508035926020909101359150565b600080600060608486031215612659578081fd5b83356001600160401b038082111561266f578283fd5b818601915086601f830112612682578283fd5b813560208282111561269057fe5b604051601f8301601f19168101820184811182821017156126ad57fe5b60405282815284830182018a10156126c3578586fd5b8282860183830137808301820186905296506126e088820161254f565b955050505050604084013590509250925092565b600060208284031215612705578081fd5b5051919050565b6001600160a01b0316815260200190565b15159052565b6001600160a01b0391909116815260200190565b6001600160a01b03929092168252602082015260400190565b6101208101818860005b600281101561277f5761276e83835161270c565b92506020919091019060010161275a565b505050866040830152856060830152608082018560005b60038110156127b5578151835260209283019290910190600101612796565b5050508360e08301526127cc61010083018461271d565b979650505050505050565b6020808252825182820181905260009190848201906040850190845b818110156128185783516001600160a01b0316835292840192918401916001016127f3565b50909695505050505050565b6020808252825182820181905260009190848201906040850190845b8181101561281857835183529284019291840191600101612840565b901515815260200190565b90815260200190565b600060c0825287518060c0840152815b8181101561289d576020818b0181015160e0868401015201612880565b818111156128ae578260e083860101525b5060208301979097525060408101949094526060840192909252608083015260a082015260e0601f909201601f19160101919050565b6020808252601b908201527a5374616b65315661756c743a20616d6f756e74206578636565647360281b604082015260600190565b60208082526022908201527f5374616b65315661756c743a20416c72656164792073746172746564207374616040820152616b6560f01b606082015260800190565b6020808252601c908201527b5374616b65315661756c743a20616d6f756e742069732077726f6e6760201b604082015260600190565b60208082526028908201527f5374616b65315661756c743a206164645374616b6572496e5661756c7420696e6040820152676974206661696c7360c01b606082015260800190565b6020808252601a90820152795374616b65315661756c743a20696e707574206973207a65726f60301b604082015260600190565b6020808252600a90820152690dcdee840cadcdeeaced60b31b604082015260600190565b6020808252601690820152755374616b65315661756c743a206e6f207374616b657360501b604082015260600190565b6020808252601c908201527b5374616b65315661756c743a206368616e6765436170206661696c7360201b604082015260600190565b6020808252601e908201527f5374616b65315661756c743a20544f53207472616e73666572206661696c0000604082015260600190565b60208082526023908201527f5374616b65315661756c743a204265666f7265207374616b655374617274426c6040820152626f636b60e81b606082015260800190565b6020808252601890820152775374616b65315661756c743a20636c6f7365642073616c6560401b604082015260600190565b60208082526014908201527331b0b73737ba103932b1b2b4bb329022ba3432b960611b604082015260600190565b6020808252601c908201527b5374616b65315661756c743a206469646e277420656e642073616c6560201b604082015260600190565b60208082526026908201527f5374616b65315661756c743a20746f74616c526577617264416d6f756e74206960408201526573207a65726f60d01b606082015260800190565b6020808252601e908201527f5374616b65315661756c743a205f6465666941646472206973207a65726f0000604082015260600190565b6020808252601b908201527a14dd185ad94c55985d5b1d0e88185b1c9958591e4818db1bdcd959602a1b604082015260600190565b6020808252601f908201527f5374616b65315661756c743a20446966666572656e7420706179746f6b656e00604082015260600190565b6020808252602c908201527f5374616b65315661756c743a206f6e2073616c65206f72206e65656420746f2060408201526b656e64207468652073616c6560a01b606082015260800190565b6020808252601a908201527914dd185ad94c55985d5b1d0e88105b1c9958591e48185919195960321b604082015260600190565b6020808252601c908201527b5374616b65315661756c743a207374617274426c6f636b207a65726f60201b604082015260600190565b60208082526017908201527614dd185ad94c55985d5b1d0e881a5b9cdd59999a595b9d604a1b604082015260600190565b6020808252601f908201527f5374616b65315661756c743a206e6f7420656e6f7567682062616c616e636500604082015260600190565b6020808252818101527f5374616b65315661756c743a206661696c207769746864726177526577617264604082015260600190565b60208082526021908201527f5374616b65315661756c743a20636c61696d20616d6f756e74206578636565646040820152607360f81b606082015260800190565b6020808252601f908201527f5374616b65315661756c743a207374617274426c6f636b206973207a65726f00604082015260600190565b6001600160a01b0381168114610a5757600080fdfe456e756d657261626c655365743a20696e646578206f7574206f6620626f756e6473416363657373436f6e74726f6c3a2073656e646572206d75737420626520616e2061646d696e20746f206772616e7441636365737369626c653a2043616c6c6572206973206e6f7420616e2061646d696e416363657373436f6e74726f6c3a2073656e646572206d75737420626520616e2061646d696e20746f207265766f6b65536166654d6174683a206d756c7469706c69636174696f6e206f766572666c6f77df8b4c520ffe197c5343c6f5aec59570151ef9a492f2c624fd45ddde6135ec42416363657373436f6e74726f6c3a2063616e206f6e6c792072656e6f756e636520726f6c657320666f722073656c66a26469706673582212206cbb8fd07920f9017919d1389e6ec3263285f8b6294e5f2ecf679aaffd6ac4f764736f6c63430007060033",
  "linkReferences": {},
  "deployedLinkReferences": {}
}