{
  "_format": "hh-sol-artifact-1",
  "contractName": "TokamakStakeUpgrade",
  "sourceName": "contracts/connection/TokamakStakeUpgrade.sol",
  "abi": [
    {
      "anonymous": false,
      "inputs": [
        {
          "indexed": false,
          "internalType": "address",
          "name": "caller",
          "type": "address"
        },
        {
          "indexed": false,
          "internalType": "uint256",
          "name": "amountIn",
          "type": "uint256"
        },
        {
          "indexed": false,
          "internalType": "uint256",
          "name": "amountOut",
          "type": "uint256"
        }
      ],
      "name": "ExchangedWTONtoTOS",
      "type": "event"
    },
    {
      "anonymous": false,
      "inputs": [
        {
          "indexed": true,
          "internalType": "bytes32",
          "name": "role",
          "type": "bytes32"
        },
        {
          "indexed": true,
          "internalType": "bytes32",
          "name": "previousAdminRole",
          "type": "bytes32"
        },
        {
          "indexed": true,
          "internalType": "bytes32",
          "name": "newAdminRole",
          "type": "bytes32"
        }
      ],
      "name": "RoleAdminChanged",
      "type": "event"
    },
    {
      "anonymous": false,
      "inputs": [
        {
          "indexed": true,
          "internalType": "bytes32",
          "name": "role",
          "type": "bytes32"
        },
        {
          "indexed": true,
          "internalType": "address",
          "name": "account",
          "type": "address"
        },
        {
          "indexed": true,
          "internalType": "address",
          "name": "sender",
          "type": "address"
        }
      ],
      "name": "RoleGranted",
      "type": "event"
    },
    {
      "anonymous": false,
      "inputs": [
        {
          "indexed": true,
          "internalType": "bytes32",
          "name": "role",
          "type": "bytes32"
        },
        {
          "indexed": true,
          "internalType": "address",
          "name": "account",
          "type": "address"
        },
        {
          "indexed": true,
          "internalType": "address",
          "name": "sender",
          "type": "address"
        }
      ],
      "name": "RoleRevoked",
      "type": "event"
    },
    {
      "anonymous": false,
      "inputs": [
        {
          "indexed": false,
          "internalType": "address",
          "name": "registry",
          "type": "address"
        }
      ],
      "name": "SetRegistry",
      "type": "event"
    },
    {
      "anonymous": false,
      "inputs": [
        {
          "indexed": false,
          "internalType": "address",
          "name": "layer2",
          "type": "address"
        }
      ],
      "name": "SetTokamakLayer2",
      "type": "event"
    },
    {
      "anonymous": false,
      "inputs": [
        {
          "indexed": false,
          "internalType": "address",
          "name": "layer2",
          "type": "address"
        },
        {
          "indexed": false,
          "internalType": "uint256",
          "name": "rn",
          "type": "uint256"
        },
        {
          "indexed": false,
          "internalType": "bool",
          "name": "receiveTON",
          "type": "bool"
        }
      ],
      "name": "TokamakProcessedUnStaking",
      "type": "event"
    },
    {
      "anonymous": false,
      "inputs": [
        {
          "indexed": false,
          "internalType": "address",
          "name": "layer2",
          "type": "address"
        },
        {
          "indexed": false,
          "internalType": "uint256",
          "name": "amount",
          "type": "uint256"
        }
      ],
      "name": "TokamakRequestedUnStaking",
      "type": "event"
    },
    {
      "anonymous": false,
      "inputs": [
        {
          "indexed": false,
          "internalType": "address",
          "name": "layer2",
          "type": "address"
        }
      ],
      "name": "TokamakRequestedUnStakingAll",
      "type": "event"
    },
    {
      "anonymous": false,
      "inputs": [
        {
          "indexed": false,
          "internalType": "address",
          "name": "layer2",
          "type": "address"
        },
        {
          "indexed": false,
          "internalType": "uint256",
          "name": "amount",
          "type": "uint256"
        }
      ],
      "name": "TokamakStaked",
      "type": "event"
    },
    {
      "inputs": [],
      "name": "ADMIN_ROLE",
      "outputs": [
        {
          "internalType": "bytes32",
          "name": "",
          "type": "bytes32"
        }
      ],
      "stateMutability": "view",
      "type": "function"
    },
    {
      "inputs": [],
      "name": "BURNER_ROLE",
      "outputs": [
        {
          "internalType": "bytes32",
          "name": "",
          "type": "bytes32"
        }
      ],
      "stateMutability": "view",
      "type": "function"
    },
    {
      "inputs": [],
      "name": "DEFAULT_ADMIN_ROLE",
      "outputs": [
        {
          "internalType": "bytes32",
          "name": "",
          "type": "bytes32"
        }
      ],
      "stateMutability": "view",
      "type": "function"
    },
    {
      "inputs": [],
      "name": "MINTER_ROLE",
      "outputs": [
        {
          "internalType": "bytes32",
          "name": "",
          "type": "bytes32"
        }
      ],
      "stateMutability": "view",
      "type": "function"
    },
    {
      "inputs": [],
      "name": "PROJECT_ADMIN_ROLE",
      "outputs": [
        {
          "internalType": "bytes32",
          "name": "",
          "type": "bytes32"
        }
      ],
      "stateMutability": "view",
      "type": "function"
    },
    {
      "inputs": [
        {
          "internalType": "address",
          "name": "account",
          "type": "address"
        }
      ],
      "name": "addAdmin",
      "outputs": [],
      "stateMutability": "nonpayable",
      "type": "function"
    },
    {
      "inputs": [
        {
          "internalType": "address",
          "name": "_layer2",
          "type": "address"
        }
      ],
      "name": "canTokamakRequestUnStaking",
      "outputs": [
        {
          "internalType": "uint256",
          "name": "canUnStakingAmount",
          "type": "uint256"
        }
      ],
      "stateMutability": "view",
      "type": "function"
    },
    {
      "inputs": [
        {
          "internalType": "address",
          "name": "_layer2",
          "type": "address"
        }
      ],
      "name": "canTokamakRequestUnStakingAll",
      "outputs": [
        {
          "internalType": "bool",
          "name": "can",
          "type": "bool"
        }
      ],
      "stateMutability": "view",
      "type": "function"
    },
    {
      "inputs": [
        {
          "internalType": "address",
          "name": "_layer2",
          "type": "address"
        }
      ],
      "name": "canTokamakRequestUnStakingAllBlock",
      "outputs": [
        {
          "internalType": "uint256",
          "name": "_block",
          "type": "uint256"
        }
      ],
      "stateMutability": "view",
      "type": "function"
    },
    {
      "inputs": [],
      "name": "checkTokamak",
      "outputs": [],
      "stateMutability": "nonpayable",
      "type": "function"
    },
    {
      "inputs": [],
      "name": "defiAddr",
      "outputs": [
        {
          "internalType": "address",
          "name": "",
          "type": "address"
        }
      ],
      "stateMutability": "view",
      "type": "function"
    },
    {
      "inputs": [],
      "name": "defiStatus",
      "outputs": [
        {
          "internalType": "uint256",
          "name": "",
          "type": "uint256"
        }
      ],
      "stateMutability": "view",
      "type": "function"
    },
    {
      "inputs": [],
      "name": "depositManager",
      "outputs": [
        {
          "internalType": "address",
          "name": "",
          "type": "address"
        }
      ],
      "stateMutability": "view",
      "type": "function"
    },
    {
      "inputs": [],
      "name": "endBlock",
      "outputs": [
        {
          "internalType": "uint256",
          "name": "",
          "type": "uint256"
        }
      ],
      "stateMutability": "view",
      "type": "function"
    },
    {
      "inputs": [
        {
          "internalType": "uint256",
          "name": "_amountIn",
          "type": "uint256"
        },
        {
          "internalType": "uint256",
          "name": "_amountOutMinimum",
          "type": "uint256"
        },
        {
          "internalType": "uint256",
          "name": "_deadline",
          "type": "uint256"
        },
        {
          "internalType": "uint160",
          "name": "_sqrtPriceLimitX96",
          "type": "uint160"
        },
        {
          "internalType": "uint256",
          "name": "_kind",
          "type": "uint256"
        }
      ],
      "name": "exchangeWTONtoTOS",
      "outputs": [
        {
          "internalType": "uint256",
          "name": "amountOut",
          "type": "uint256"
        }
      ],
      "stateMutability": "nonpayable",
      "type": "function"
    },
    {
      "inputs": [],
      "name": "finalBalanceTON",
      "outputs": [
        {
          "internalType": "uint256",
          "name": "",
          "type": "uint256"
        }
      ],
      "stateMutability": "view",
      "type": "function"
    },
    {
      "inputs": [],
      "name": "finalBalanceWTON",
      "outputs": [
        {
          "internalType": "uint256",
          "name": "",
          "type": "uint256"
        }
      ],
      "stateMutability": "view",
      "type": "function"
    },
    {
      "inputs": [],
      "name": "fromTokamak",
      "outputs": [
        {
          "internalType": "uint256",
          "name": "",
          "type": "uint256"
        }
      ],
      "stateMutability": "view",
      "type": "function"
    },
    {
      "inputs": [
        {
          "internalType": "bytes32",
          "name": "role",
          "type": "bytes32"
        }
      ],
      "name": "getRoleAdmin",
      "outputs": [
        {
          "internalType": "bytes32",
          "name": "",
          "type": "bytes32"
        }
      ],
      "stateMutability": "view",
      "type": "function"
    },
    {
      "inputs": [
        {
          "internalType": "bytes32",
          "name": "role",
          "type": "bytes32"
        },
        {
          "internalType": "uint256",
          "name": "index",
          "type": "uint256"
        }
      ],
      "name": "getRoleMember",
      "outputs": [
        {
          "internalType": "address",
          "name": "",
          "type": "address"
        }
      ],
      "stateMutability": "view",
      "type": "function"
    },
    {
      "inputs": [
        {
          "internalType": "bytes32",
          "name": "role",
          "type": "bytes32"
        }
      ],
      "name": "getRoleMemberCount",
      "outputs": [
        {
          "internalType": "uint256",
          "name": "",
          "type": "uint256"
        }
      ],
      "stateMutability": "view",
      "type": "function"
    },
    {
      "inputs": [],
      "name": "getUniswapInfo",
      "outputs": [
        {
          "internalType": "address",
          "name": "uniswapRouter",
          "type": "address"
        },
        {
          "internalType": "address",
          "name": "npm",
          "type": "address"
        },
        {
          "internalType": "address",
          "name": "ext",
          "type": "address"
        },
        {
          "internalType": "uint256",
          "name": "fee",
          "type": "uint256"
        },
        {
          "internalType": "address",
          "name": "uniswapRouterV2",
          "type": "address"
        }
      ],
      "stateMutability": "view",
      "type": "function"
    },
    {
      "inputs": [
        {
          "internalType": "address",
          "name": "user",
          "type": "address"
        }
      ],
      "name": "getUserStaked",
      "outputs": [
        {
          "internalType": "uint256",
          "name": "amount",
          "type": "uint256"
        },
        {
          "internalType": "uint256",
          "name": "claimedBlock",
          "type": "uint256"
        },
        {
          "internalType": "uint256",
          "name": "claimedAmount",
          "type": "uint256"
        },
        {
          "internalType": "uint256",
          "name": "releasedBlock",
          "type": "uint256"
        },
        {
          "internalType": "uint256",
          "name": "releasedAmount",
          "type": "uint256"
        },
        {
          "internalType": "uint256",
          "name": "releasedTOSAmount",
          "type": "uint256"
        },
        {
          "internalType": "bool",
          "name": "released",
          "type": "bool"
        }
      ],
      "stateMutability": "view",
      "type": "function"
    },
    {
      "inputs": [
        {
          "internalType": "bytes32",
          "name": "role",
          "type": "bytes32"
        },
        {
          "internalType": "address",
          "name": "account",
          "type": "address"
        }
      ],
      "name": "grantRole",
      "outputs": [],
      "stateMutability": "nonpayable",
      "type": "function"
    },
    {
      "inputs": [
        {
          "internalType": "bytes32",
          "name": "role",
          "type": "bytes32"
        },
        {
          "internalType": "address",
          "name": "account",
          "type": "address"
        }
      ],
      "name": "hasRole",
      "outputs": [
        {
          "internalType": "bool",
          "name": "",
          "type": "bool"
        }
      ],
      "stateMutability": "view",
      "type": "function"
    },
    {
      "inputs": [],
      "name": "infos",
      "outputs": [
        {
          "internalType": "address",
          "name": "",
          "type": "address"
        },
        {
          "internalType": "address",
          "name": "",
          "type": "address"
        },
        {
          "internalType": "uint256[3]",
          "name": "",
          "type": "uint256[3]"
        },
        {
          "internalType": "uint256",
          "name": "",
          "type": "uint256"
        },
        {
          "internalType": "uint256",
          "name": "",
          "type": "uint256"
        },
        {
          "internalType": "uint256",
          "name": "",
          "type": "uint256"
        }
      ],
      "stateMutability": "view",
      "type": "function"
    },
    {
      "inputs": [
        {
          "internalType": "address",
          "name": "account",
          "type": "address"
        }
      ],
      "name": "isAdmin",
      "outputs": [
        {
          "internalType": "bool",
          "name": "",
          "type": "bool"
        }
      ],
      "stateMutability": "view",
      "type": "function"
    },
    {
      "inputs": [],
      "name": "migratedL2",
      "outputs": [
        {
          "internalType": "bool",
          "name": "",
          "type": "bool"
        }
      ],
      "stateMutability": "view",
      "type": "function"
    },
    {
      "inputs": [],
      "name": "pauseProxy",
      "outputs": [
        {
          "internalType": "bool",
          "name": "",
          "type": "bool"
        }
      ],
      "stateMutability": "view",
      "type": "function"
    },
    {
      "inputs": [],
      "name": "paytoken",
      "outputs": [
        {
          "internalType": "address",
          "name": "",
          "type": "address"
        }
      ],
      "stateMutability": "view",
      "type": "function"
    },
    {
      "inputs": [
        {
          "internalType": "address",
          "name": "account",
          "type": "address"
        }
      ],
      "name": "removeAdmin",
      "outputs": [],
      "stateMutability": "nonpayable",
      "type": "function"
    },
    {
      "inputs": [
        {
          "internalType": "bytes32",
          "name": "role",
          "type": "bytes32"
        },
        {
          "internalType": "address",
          "name": "account",
          "type": "address"
        }
      ],
      "name": "renounceRole",
      "outputs": [],
      "stateMutability": "nonpayable",
      "type": "function"
    },
    {
      "inputs": [],
      "name": "requestNum",
      "outputs": [
        {
          "internalType": "uint256",
          "name": "",
          "type": "uint256"
        }
      ],
      "stateMutability": "view",
      "type": "function"
    },
    {
      "inputs": [
        {
          "internalType": "bytes32",
          "name": "role",
          "type": "bytes32"
        },
        {
          "internalType": "address",
          "name": "account",
          "type": "address"
        }
      ],
      "name": "revokeRole",
      "outputs": [],
      "stateMutability": "nonpayable",
      "type": "function"
    },
    {
      "inputs": [],
      "name": "rewardClaimedTotal",
      "outputs": [
        {
          "internalType": "uint256",
          "name": "",
          "type": "uint256"
        }
      ],
      "stateMutability": "view",
      "type": "function"
    },
    {
      "inputs": [],
      "name": "saleStartBlock",
      "outputs": [
        {
          "internalType": "uint256",
          "name": "",
          "type": "uint256"
        }
      ],
      "stateMutability": "view",
      "type": "function"
    },
    {
      "inputs": [],
      "name": "seigManager",
      "outputs": [
        {
          "internalType": "address",
          "name": "",
          "type": "address"
        }
      ],
      "stateMutability": "view",
      "type": "function"
    },
    {
      "inputs": [
        {
          "internalType": "address",
          "name": "_registry",
          "type": "address"
        }
      ],
      "name": "setRegistry",
      "outputs": [],
      "stateMutability": "nonpayable",
      "type": "function"
    },
    {
      "inputs": [
        {
          "internalType": "address",
          "name": "_layer2",
          "type": "address"
        }
      ],
      "name": "setTokamakLayer2",
      "outputs": [],
      "stateMutability": "nonpayable",
      "type": "function"
    },
    {
      "inputs": [],
      "name": "stakeRegistry",
      "outputs": [
        {
          "internalType": "address",
          "name": "",
          "type": "address"
        }
      ],
      "stateMutability": "view",
      "type": "function"
    },
    {
      "inputs": [],
      "name": "startBlock",
      "outputs": [
        {
          "internalType": "uint256",
          "name": "",
          "type": "uint256"
        }
      ],
      "stateMutability": "view",
      "type": "function"
    },
    {
      "inputs": [],
      "name": "swapProxy",
      "outputs": [
        {
          "internalType": "address",
          "name": "",
          "type": "address"
        }
      ],
      "stateMutability": "view",
      "type": "function"
    },
    {
      "inputs": [
        {
          "internalType": "uint256",
          "name": "amount",
          "type": "uint256"
        },
        {
          "internalType": "bool",
          "name": "toWTON",
          "type": "bool"
        }
      ],
      "name": "swapTONtoWTON",
      "outputs": [],
      "stateMutability": "nonpayable",
      "type": "function"
    },
    {
      "inputs": [],
      "name": "swappedAmountTOS",
      "outputs": [
        {
          "internalType": "uint256",
          "name": "",
          "type": "uint256"
        }
      ],
      "stateMutability": "view",
      "type": "function"
    },
    {
      "inputs": [],
      "name": "toTokamak",
      "outputs": [
        {
          "internalType": "uint256",
          "name": "",
          "type": "uint256"
        }
      ],
      "stateMutability": "view",
      "type": "function"
    },
    {
      "inputs": [],
      "name": "toUniswapWTON",
      "outputs": [
        {
          "internalType": "uint256",
          "name": "",
          "type": "uint256"
        }
      ],
      "stateMutability": "view",
      "type": "function"
    },
    {
      "inputs": [],
      "name": "tokamakLayer2",
      "outputs": [
        {
          "internalType": "address",
          "name": "",
          "type": "address"
        }
      ],
      "stateMutability": "view",
      "type": "function"
    },
    {
      "inputs": [
        {
          "internalType": "address",
          "name": "_layer2",
          "type": "address"
        }
      ],
      "name": "tokamakProcessUnStaking",
      "outputs": [],
      "stateMutability": "nonpayable",
      "type": "function"
    },
    {
      "inputs": [
        {
          "internalType": "address",
          "name": "_layer2",
          "type": "address"
        },
        {
          "internalType": "uint256",
          "name": "wtonAmount",
          "type": "uint256"
        }
      ],
      "name": "tokamakRequestUnStaking",
      "outputs": [],
      "stateMutability": "nonpayable",
      "type": "function"
    },
    {
      "inputs": [
        {
          "internalType": "address",
          "name": "_layer2",
          "type": "address"
        }
      ],
      "name": "tokamakRequestUnStakingAll",
      "outputs": [],
      "stateMutability": "nonpayable",
      "type": "function"
    },
    {
      "inputs": [
        {
          "internalType": "address",
          "name": "_layer2",
          "type": "address"
        },
        {
          "internalType": "uint256",
          "name": "stakeAmount",
          "type": "uint256"
        }
      ],
      "name": "tokamakStaking",
      "outputs": [],
      "stateMutability": "nonpayable",
      "type": "function"
    },
    {
      "inputs": [],
      "name": "token",
      "outputs": [
        {
          "internalType": "address",
          "name": "",
          "type": "address"
        }
      ],
      "stateMutability": "view",
      "type": "function"
    },
    {
      "inputs": [],
      "name": "ton",
      "outputs": [
        {
          "internalType": "address",
          "name": "",
          "type": "address"
        }
      ],
      "stateMutability": "view",
      "type": "function"
    },
    {
      "inputs": [],
      "name": "totalStakedAmount",
      "outputs": [
        {
          "internalType": "uint256",
          "name": "",
          "type": "uint256"
        }
      ],
      "stateMutability": "view",
      "type": "function"
    },
    {
      "inputs": [],
      "name": "totalStakers",
      "outputs": [
        {
          "internalType": "uint256",
          "name": "",
          "type": "uint256"
        }
      ],
      "stateMutability": "view",
      "type": "function"
    },
    {
      "inputs": [
        {
          "internalType": "address",
          "name": "newAdmin",
          "type": "address"
        }
      ],
      "name": "transferAdmin",
      "outputs": [],
      "stateMutability": "nonpayable",
      "type": "function"
    },
    {
      "inputs": [
        {
          "internalType": "address",
          "name": "",
          "type": "address"
        }
      ],
      "name": "userStaked",
      "outputs": [
        {
          "internalType": "uint256",
          "name": "amount",
          "type": "uint256"
        },
        {
          "internalType": "uint256",
          "name": "claimedBlock",
          "type": "uint256"
        },
        {
          "internalType": "uint256",
          "name": "claimedAmount",
          "type": "uint256"
        },
        {
          "internalType": "uint256",
          "name": "releasedBlock",
          "type": "uint256"
        },
        {
          "internalType": "uint256",
          "name": "releasedAmount",
          "type": "uint256"
        },
        {
          "internalType": "uint256",
          "name": "releasedTOSAmount",
          "type": "uint256"
        },
        {
          "internalType": "bool",
          "name": "released",
          "type": "bool"
        }
      ],
      "stateMutability": "view",
      "type": "function"
    },
    {
      "inputs": [],
      "name": "vault",
      "outputs": [
        {
          "internalType": "address",
          "name": "",
          "type": "address"
        }
      ],
      "stateMutability": "view",
      "type": "function"
    },
    {
      "inputs": [],
      "name": "version",
      "outputs": [
        {
          "internalType": "string",
          "name": "",
          "type": "string"
        }
      ],
      "stateMutability": "pure",
      "type": "function"
    },
    {
      "inputs": [],
      "name": "withdrawFlag",
      "outputs": [
        {
          "internalType": "bool",
          "name": "",
          "type": "bool"
        }
      ],
      "stateMutability": "view",
      "type": "function"
    },
    {
      "inputs": [],
      "name": "wton",
      "outputs": [
        {
          "internalType": "address",
          "name": "",
          "type": "address"
        }
      ],
      "stateMutability": "view",
      "type": "function"
    }
  ],
  "bytecode": "0x608060405234801561001057600080fd5b50614185806100206000396000f3fe608060405234801561001057600080fd5b50600436106102bf5760003560e01c806305871b78146102c4578063065c4313146102e2578063083c6323146102f75780630ac8e0f3146102ff5780630ea3d9c9146103075780631785f53c1461030f57806320027275146103225780632335a6b21461032a578063248a9ca31461034a57806324d7806c1461035d578063282c51f3146103705780632995fa0e146103785780632f2ff15d1461038057806336568abe1461039357806341c04d5e146103a657806343b0934a146103ae57806348cd4cb1146103c357806354fd4d50146103cb578063567e98f9146103e057806363a8fd89146103e857806368304835146103f0578063687b53be146103f85780636c7ac9d81461040b5780636e7cf534146104135780636ec4be901461041b5780636fb7f55814610423578063704802751461042b57806371def0b31461043e5780637228532614610451578063730464a91461045957806375829def1461046c57806375b238fc1461047f5780637df3f40c14610487578063869890381461049a5780638d62d949146104a25780639010d07c146104aa57806391d14854146104bd57806392ea3b4c146104d05780639a88be2f146104d85780639d84ca35146104f2578063a1f5f50e146104fa578063a217fddf14610502578063a6e8670e1461050a578063a85217561461051d578063a91ee0dc14610530578063acc3a93914610543578063b2d4d6a314610569578063ca15c87314610571578063cc48b94714610584578063ce681ce61461058c578063d53913931461059f578063d547741f146105a7578063dac3fc3f146105ba578063e09974b9146105cd578063e58e2747146105d5578063e6a7bc87146105dd578063f0cdfa53146105e5578063fbfa77cf146105f8578063fc0c546a14610600578063fd7fa46014610608578063ff75878814610610575b600080fd5b6102cc610629565b6040516102d9919061384d565b60405180910390f35b6102f56102f0366004613527565b61062f565b005b6102cc610bcb565b6102cc610bd1565b6102cc610bd7565b6102f561031d36600461343b565b610bdd565b6102cc610c3c565b61033d61033836600461343b565b610c42565b6040516102d99190613842565b6102cc61035836600461356e565b610de7565b61033d61036b36600461343b565b610dfc565b6102cc610e1c565b6102f5610e40565b6102f561038e366004613586565b610fc5565b6102f56103a1366004613586565b61102c565b6102cc61108d565b6103b66110b1565b6040516102d991906136f2565b6102cc6110c0565b6103d36110c6565b6040516102d99190613856565b6102cc6110f0565b61033d6110f6565b6103b66110ff565b6102cc61040636600461343b565b61110e565b6103b6611230565b61033d61123f565b6103b6611248565b6103b6611257565b6102f561043936600461343b565b611266565b6102f561044c36600461343b565b6112c2565b6102cc61164b565b6102f561046736600461343b565b611651565b6102f561047a36600461343b565b6119a3565b6102cc611ac4565b6102f56104953660046135ee565b611ad6565b6102cc611df3565b6103b6611df9565b6103b66104b83660046135b5565b611e08565b61033d6104cb366004613586565b611e27565b6103b6611e3f565b6104e0611e4e565b6040516102d996959493929190613771565b6103b6611ea4565b61033d611eb8565b6102cc611ec8565b6102f561051836600461343b565b611ecd565b6102cc61052b36600461343b565b611fa9565b6102f561053e36600461343b565b6120a7565b61055661055136600461343b565b61216f565b6040516102d99796959493929190613fe7565b6102cc6121af565b6102cc61057f36600461356e565b6121b5565b6103b66121cc565b6102f561059a366004613527565b6121db565b6102cc612518565b6102f56105b5366004613586565b61253c565b6105566105c836600461343b565b612595565b6102cc6125de565b6102cc6125e4565b6102cc6125ea565b6102cc6105f3366004613612565b6125f0565b6103b6612e70565b6103b6612e7f565b6102cc612e8e565b610618612e94565b6040516102d9959493929190613741565b60155481565b600b54156106585760405162461bcd60e51b815260040161064f90613aab565b60405180910390fd5b6001600b819055546001600160a01b0316806106865760405162461bcd60e51b815260040161064f90613869565b826001600160a01b0381166106ad5760405162461bcd60e51b815260040161064f90613869565b600360009054906101000a90046001600160a01b03166001600160a01b031663b8c766b86040518163ffffffff1660e01b815260040160206040518083038186803b1580156106fb57600080fd5b505afa15801561070f573d6000803e3d6000fd5b505050506040513d601f19601f820116820180604052508101906107339190613552565b61074f5760405162461bcd60e51b815260040161064f90613eaa565b6006544311156107715760405162461bcd60e51b815260040161064f9061397f565b600083116107915760405162461bcd60e51b815260040161064f90613d56565b600260195561079e610e40565b60105460408051633761ead760e11b815290516000926001600160a01b031691636ec3d5ae916004808301926020929190829003018186803b1580156107e357600080fd5b505afa1580156107f7573d6000803e3d6000fd5b505050506040513d601f19601f8201168201806040525081019061081b91906135d6565b60065490915061082b9082612f33565b43106108495760405162461bcd60e51b815260040161064f906139b1565b6012546001600160a01b031661087957601280546001600160a01b0319166001600160a01b0387161790556109fe565b600f546012546040516367265c3b60e11b81526000926001600160a01b039081169263ce4cb876926108b392909116903090600401613727565b60206040518083038186803b1580156108cb57600080fd5b505afa1580156108df573d6000803e3d6000fd5b505050506040513d601f19601f8201168201806040525081019061090391906135d6565b11806109965750601054601254604051632638fdf560e01b81526000926001600160a01b0390811692632638fdf59261094492909116903090600401613727565b60206040518083038186803b15801561095c57600080fd5b505afa158015610970573d6000803e3d6000fd5b505050506040513d601f19601f8201168201806040525081019061099491906135d6565b115b156109cd576012546001600160a01b038681169116146109c85760405162461bcd60e51b815260040161064f90613ba1565b6109fe565b6012546001600160a01b038681169116146109fe57601280546001600160a01b0319166001600160a01b0387161790555b600d546040516370a0823160e01b815285916001600160a01b0316906370a0823190610a2e9030906004016136f2565b60206040518083038186803b158015610a4657600080fd5b505afa158015610a5a573d6000803e3d6000fd5b505050506040513d601f19601f82011682018060405250810190610a7e91906135d6565b1015610a9c5760405162461bcd60e51b815260040161064f90613c5c565b601354610aa99085612f75565b601355601054604051600091610acf916001600160a01b03909116908890602001613727565b60408051601f1981840301815290829052600d54600e5463cae9ca5160e01b84529193506001600160a01b039081169263cae9ca5192610b1792169089908690600401613812565b602060405180830381600087803b158015610b3157600080fd5b505af1158015610b45573d6000803e3d6000fd5b505050506040513d601f19601f82011682018060405250810190610b699190613552565b610b855760405162461bcd60e51b815260040161064f90613ad9565b7f36f1e081b7e687a2472c2fbd52bc97993ddc788b19c74010f11e25f3c917d2dd8686604051610bb69291906137d6565b60405180910390a150506000600b5550505050565b60065481565b60145481565b60165481565b610be633610dfc565b610c215760405162461bcd60e51b815260040180806020018281038252602281526020018061408e6022913960400191505060405180910390fd5b610c396000805160206141018339815191528261102c565b50565b60045481565b6012546000906001600160a01b031615801590610c6c57506012546001600160a01b038381169116145b8015610c8257506010546001600160a01b031615155b8015610c985750600f546001600160a01b031615155b15610de25760105460408051633761ead760e11b815290516000926001600160a01b031691636ec3d5ae916004808301926020929190829003018186803b158015610ce257600080fd5b505afa158015610cf6573d6000803e3d6000fd5b505050506040513d601f19601f82011682018060405250810190610d1a91906135d6565b600f546040516367265c3b60e11b8152919250600e8304916000916001600160a01b03169063ce4cb87690610d559088903090600401613727565b60206040518083038186803b158015610d6d57600080fd5b505afa158015610d81573d6000803e3d6000fd5b505050506040513d601f19601f82011682018060405250810190610da591906135d6565b9050600081118015610dd45750610dd182610dcb85600654612f3390919063ffffffff16565b90612f33565b43115b15610dde57600193505b5050505b919050565b6000908152601c602052604090206002015490565b6000610e1660008051602061410183398151915283611e27565b92915050565b7f9667e80708b6eeeb0053fa0cca44e028ff548e2a9f029edfeac87c118b08b7c881565b600d546001600160a01b0316610f41576000806000806000600160009054906101000a90046001600160a01b03166001600160a01b031663a782ebd56040518163ffffffff1660e01b815260040160a06040518083038186803b158015610ea657600080fd5b505afa158015610eba573d6000803e3d6000fd5b505050506040513d601f19601f82011682018060405250810190610ede9190613457565b600d80546001600160a01b03199081166001600160a01b0397881617909155600e805482169587169590951790945560108054851693861693909317909255600f8054841691851691909117905560118054909216921691909117905550505050505b600d546001600160a01b031615801590610f655750600e546001600160a01b031615155b8015610f7b5750600f546001600160a01b031615155b8015610f9157506010546001600160a01b031615155b8015610fa757506011546001600160a01b031615155b610fc35760405162461bcd60e51b815260040161064f90613d22565b565b6000828152601c6020526040902060020154610fe3906104cb612fcd565b61101e5760405162461bcd60e51b815260040180806020018281038252602f81526020018061405f602f913960400191505060405180910390fd5b6110288282612fd1565b5050565b611034612fcd565b6001600160a01b0316816001600160a01b0316146110835760405162461bcd60e51b815260040180806020018281038252602f815260200180614121602f913960400191505060405180910390fd5b611028828261303a565b7f52eafc11f6f81f86878bffd31109a0d92f37506527754f00788853ff9f63b13081565b6002546001600160a01b031681565b60055481565b60408051808201909152601081526f757067726164652e323032313038303360801b602082015290565b60085481565b600c5460ff1681565b6001546001600160a01b031681565b6012546000906001600160a01b03161580159061113857506012546001600160a01b038381169116145b801561114e5750600f546001600160a01b031615155b15610de257600f546040516367265c3b60e11b81526000916001600160a01b03169063ce4cb876906111869086903090600401613727565b60206040518083038186803b15801561119e57600080fd5b505afa1580156111b2573d6000803e3d6000fd5b505050506040513d601f19601f820116820180604052508101906111d691906135d6565b90506000811180156111ea57506000600854115b80156112065750600854819061120490633b9aca006130a3565b105b1561122a576008546112279061122090633b9aca006130a3565b8290612f33565b91505b50919050565b6010546001600160a01b031681565b601b5460ff1681565b6011546001600160a01b031681565b600f546001600160a01b031681565b61126f33610dfc565b6112aa5760405162461bcd60e51b815260040180806020018281038252602281526020018061408e6022913960400191505060405180910390fd5b610c3960008051602061410183398151915282610fc5565b600b54156112e25760405162461bcd60e51b815260040161064f90613aab565b6001600b819055546001600160a01b0316806113105760405162461bcd60e51b815260040161064f90613869565b816001600160a01b0381166113375760405162461bcd60e51b815260040161064f90613869565b600360009054906101000a90046001600160a01b03166001600160a01b031663b8c766b86040518163ffffffff1660e01b815260040160206040518083038186803b15801561138557600080fd5b505afa158015611399573d6000803e3d6000fd5b505050506040513d601f19601f820116820180604052508101906113bd9190613552565b6113d95760405162461bcd60e51b815260040161064f90613eaa565b60125483906001600160a01b038083169116146114085760405162461bcd60e51b815260040161064f90613ba1565b6003601955601a5461141b906001612f75565b601a55611426610e40565b60105460408051633761ead760e11b815290516000926001600160a01b031691636ec3d5ae916004808301926020929190829003018186803b15801561146b57600080fd5b505afa15801561147f573d6000803e3d6000fd5b505050506040513d601f19601f820116820180604052508101906114a391906135d6565b600f546040516367265c3b60e11b81529192506000916001600160a01b039091169063ce4cb876906114db9089903090600401613727565b60206040518083038186803b1580156114f357600080fd5b505afa158015611507573d6000803e3d6000fd5b505050506040513d601f19601f8201168201806040525081019061152b91906135d6565b90506000811161154d5760405162461bcd60e51b815260040161064f90613948565b600654600e830490611565908290610dcb9086612f33565b43116115835760405162461bcd60e51b815260040161064f90613d97565b601054604051636b2160b760e01b81526001600160a01b0390911690636b2160b7906115b3908a906004016136f2565b602060405180830381600087803b1580156115cd57600080fd5b505af11580156115e1573d6000803e3d6000fd5b505050506040513d601f19601f820116820180604052508101906116059190613552565b507fd1c4e96e0fd22936ea8aebe0b8e06b19f1c4a836b141a34cf9e925d2afb205238760405161163591906136f2565b60405180910390a150506000600b555050505050565b60195481565b600b54156116715760405162461bcd60e51b815260040161064f90613aab565b6001600b819055546001600160a01b03168061169f5760405162461bcd60e51b815260040161064f90613869565b600360009054906101000a90046001600160a01b03166001600160a01b031663b8c766b86040518163ffffffff1660e01b815260040160206040518083038186803b1580156116ed57600080fd5b505afa158015611701573d6000803e3d6000fd5b505050506040513d601f19601f820116820180604052508101906117259190613552565b6117415760405162461bcd60e51b815260040161064f90613eaa565b60125482906001600160a01b038083169116146117705760405162461bcd60e51b815260040161064f90613ba1565b600560195414156117935760405162461bcd60e51b815260040161064f90613ca6565b6005601955601a805460009091556117a9610e40565b600f546012546040516367265c3b60e11b81526001600160a01b039283169263ce4cb876926117df929116903090600401613727565b60206040518083038186803b1580156117f757600080fd5b505afa15801561180b573d6000803e3d6000fd5b505050506040513d601f19601f8201168201806040525081019061182f91906135d6565b61184457601280546001600160a01b03191690555b601054604051632638fdf560e01b81526118d1916001600160a01b031690632638fdf5906118789088903090600401613727565b60206040518083038186803b15801561189057600080fd5b505afa1580156118a4573d6000803e3d6000fd5b505050506040513d601f19601f820116820180604052508101906118c891906135d6565b60145490612f75565b60145560105460405163fb0713b160e01b81526001600160a01b039091169063fb0713b19061190990879085906001906004016137ef565b602060405180830381600087803b15801561192357600080fd5b505af1158015611937573d6000803e3d6000fd5b505050506040513d601f19601f8201168201806040525081019061195b9190613552565b507f76d210b2dc3da8be1904d8b5da9feb5cdd21af436261626c4ec607e2123b417d84826001604051611990939291906137ef565b60405180910390a150506000600b555050565b6119ac33610dfc565b6119e75760405162461bcd60e51b815260040180806020018281038252602281526020018061408e6022913960400191505060405180910390fd5b6001600160a01b038116611a3d576040805162461bcd60e51b815260206004820152601860248201527741636365737369626c653a207a65726f206164647265737360401b604482015290519081900360640190fd5b336001600160a01b0382161415611a94576040805162461bcd60e51b815260206004820152601660248201527520b1b1b2b9b9b4b136329d1039b0b6b29030b236b4b760511b604482015290519081900360640190fd5b611aac60008051602061410183398151915282610fc5565b610c396000805160206141018339815191523361102c565b60008051602061410183398151915281565b600b5415611af65760405162461bcd60e51b815260040161064f90613aab565b6001600b55611b03610e40565b8015611cae576011546001600160a01b0316611b315760405162461bcd60e51b815260040161064f90613913565b600d546040516370a0823160e01b815283916001600160a01b0316906370a0823190611b619030906004016136f2565b60206040518083038186803b158015611b7957600080fd5b505afa158015611b8d573d6000803e3d6000fd5b505050506040513d601f19601f82011682018060405250810190611bb191906135d6565b1015611bcf5760405162461bcd60e51b815260040161064f906139fa565b601154604051600091611bf2916001600160a01b03909116908190602001613727565b60408051601f1981840301815290829052600d54600e5463cae9ca5160e01b84529193506001600160a01b039081169263cae9ca5192611c3a92169087908690600401613812565b602060405180830381600087803b158015611c5457600080fd5b505af1158015611c68573d6000803e3d6000fd5b505050506040513d601f19601f82011682018060405250810190611c8c9190613552565b611ca85760405162461bcd60e51b815260040161064f90613c0d565b50611dea565b600e546040516370a0823160e01b815283916001600160a01b0316906370a0823190611cde9030906004016136f2565b60206040518083038186803b158015611cf657600080fd5b505afa158015611d0a573d6000803e3d6000fd5b505050506040513d601f19601f82011682018060405250810190611d2e91906135d6565b1015611d4c5760405162461bcd60e51b815260040161064f90613a52565b600e5460405163f53fe70f60e01b81526001600160a01b039091169063f53fe70f90611d7c90859060040161384d565b602060405180830381600087803b158015611d9657600080fd5b505af1158015611daa573d6000803e3d6000fd5b505050506040513d601f19601f82011682018060405250810190611dce9190613552565b611dea5760405162461bcd60e51b815260040161064f90613cec565b50506000600b55565b600a5481565b600e546001600160a01b031681565b6000828152601c60205260408120611e2090836130fc565b9392505050565b6000828152601c60205260408120611e209083613108565b6012546001600160a01b031681565b600080611e5961341d565b5050600254600354604080516060810182526004548152600554602082015260065491810191909152600754600854600a546001600160a01b03958616979590941695509193909290565b600c5461010090046001600160a01b031681565b600c54600160a81b900460ff1681565b600081565b611ed633610dfc565b611f115760405162461bcd60e51b815260040180806020018281038252602281526020018061408e6022913960400191505060405180910390fd5b6001600160a01b03811615801590611f3757506012546001600160a01b03828116911614155b611f535760405162461bcd60e51b815260040161064f906138d2565b601280546001600160a01b0319166001600160a01b0383161790556040517fbcf2b04f5517cca822ae60e21bb6e3889b8d8307ea062c5266c63a014386c99090611f9e9083906136f2565b60405180910390a150565b6012546000906001600160a01b031615801590611fd357506012546001600160a01b038381169116145b8015611fe957506010546001600160a01b031615155b15610de25760105460408051633761ead760e11b815290516000926001600160a01b031691636ec3d5ae916004808301926020929190829003018186803b15801561203357600080fd5b505afa158015612047573d6000803e3d6000fd5b505050506040513d601f19601f8201168201806040525081019061206b91906135d6565b9050600e810461207b8282612f75565b60065411156120a05761209d81610dcb84600654612f3390919063ffffffff16565b92505b5050919050565b6120b033610dfc565b6120eb5760405162461bcd60e51b815260040180806020018281038252602281526020018061408e6022913960400191505060405180910390fd5b806001600160a01b0381166121125760405162461bcd60e51b815260040161064f90613869565b600180546001600160a01b0319166001600160a01b0384811691909117918290556040517f278c70ced5f3e0e5eeb385b5ff9cb735748ba00a625147e66065ed48fc1562cd926121639216906136f2565b60405180910390a15050565b6009602052600090815260409020805460018201546002830154600384015460048501546005860154600690960154949593949293919290919060ff1687565b60075481565b6000818152601c60205260408120610e169061311d565b600d546001600160a01b031681565b600b54156121fb5760405162461bcd60e51b815260040161064f90613aab565b6001600b819055546001600160a01b0316806122295760405162461bcd60e51b815260040161064f90613869565b826001600160a01b0381166122505760405162461bcd60e51b815260040161064f90613869565b600360009054906101000a90046001600160a01b03166001600160a01b031663b8c766b86040518163ffffffff1660e01b815260040160206040518083038186803b15801561229e57600080fd5b505afa1580156122b2573d6000803e3d6000fd5b505050506040513d601f19601f820116820180604052508101906122d69190613552565b6122f25760405162461bcd60e51b815260040161064f90613eaa565b60125484906001600160a01b038083169116146123215760405162461bcd60e51b815260040161064f90613ba1565b6003601955601a54612334906001612f75565b601a5561233f610e40565b600f546040516367265c3b60e11b81526000916001600160a01b03169063ce4cb876906123729089903090600401613727565b60206040518083038186803b15801561238a57600080fd5b505afa15801561239e573d6000803e3d6000fd5b505050506040513d601f19601f820116820180604052508101906123c291906135d6565b9050600081116123e45760405162461bcd60e51b815260040161064f90613948565b6008546000906123f890633b9aca006130a3565b9050600080821180156124145750612411836064612f33565b82105b1561242b576124286064610dcb8585612f33565b90505b6000811161244b5760405162461bcd60e51b815260040161064f90613e29565b60105460405163da95ebf760e01b81526001600160a01b039091169063da95ebf79061247d908b9085906004016137d6565b602060405180830381600087803b15801561249757600080fd5b505af11580156124ab573d6000803e3d6000fd5b505050506040513d601f19601f820116820180604052508101906124cf9190613552565b507f2a23e23c116b511f71c9f0c2648b0372e6bbcb1f559a7cbfaed5c55933ea6c4e88826040516125019291906137d6565b60405180910390a150506000600b55505050505050565b7ff0887ba65ee2024ea881d91b74c2450ef19e1557f03bed3ea9f16b037cbe2dc981565b6000828152601c602052604090206002015461255a906104cb612fcd565b6110835760405162461bcd60e51b81526004018080602001828103825260308152602001806140b06030913960400191505060405180910390fd5b6001600160a01b03166000908152600960205260409020805460018201546002830154600384015460048501546005860154600690960154949693959294919390929160ff1690565b601a5481565b60175481565b60185481565b6000600b546000146126145760405162461bcd60e51b815260040161064f90613aab565b6001600b5560035460408051631718ecd760e31b815290516001600160a01b039092169163b8c766b891600480820192602092909190829003018186803b15801561265e57600080fd5b505afa158015612672573d6000803e3d6000fd5b505050506040513d601f19601f820116820180604052508101906126969190613552565b6126b25760405162461bcd60e51b815260040161064f90613eaa565b6006544311156126d45760405162461bcd60e51b815260040161064f90613e77565b600282106126f45760405162461bcd60e51b815260040161064f90613de8565b6126fc610e40565b600e546040516370a0823160e01b81526000916001600160a01b0316906370a082319061272d9030906004016136f2565b60206040518083038186803b15801561274557600080fd5b505afa158015612759573d6000803e3d6000fd5b505050506040513d601f19601f8201168201806040525081019061277d91906135d6565b600d546040516370a0823160e01b81529192506000916001600160a01b03909116906370a08231906127b39030906004016136f2565b60206040518083038186803b1580156127cb57600080fd5b505afa1580156127df573d6000803e3d6000fd5b505050506040513d601f19601f8201168201806040525081019061280391906135d6565b6012549091506000906001600160a01b03161561293757600f546012546040516367265c3b60e11b81526001600160a01b039283169263ce4cb87692612850929116903090600401613727565b60206040518083038186803b15801561286857600080fd5b505afa15801561287c573d6000803e3d6000fd5b505050506040513d601f19601f820116820180604052508101906128a091906135d6565b601054601254604051632638fdf560e01b8152929350612934926001600160a01b0392831692632638fdf5926128dd929116903090600401613727565b60206040518083038186803b1580156128f557600080fd5b505afa158015612909573d6000803e3d6000fd5b505050506040513d601f19601f8201168201806040525081019061292d91906135d6565b8290612f75565b90505b8282156129525761294f61292d84633b9aca006130a3565b90505b898110156129725760405162461bcd60e51b815260040161064f90613bd8565b8115612985576129828183612f75565b90505b60085461299690633b9aca006130a3565b811180156129c65750896129c36129bc633b9aca006008546130a390919063ffffffff16565b8390612f33565b10155b6129e25760405162461bcd60e51b815260040161064f90613b6d565b89841015612ae457601154604051600091612a0d916001600160a01b03909116908190602001613727565b60408051601f1981840301815291905290506000612a39633b9aca00612a338e89612f33565b90613128565b600d54600e5460405163cae9ca5160e01b81529293506001600160a01b039182169263cae9ca5192612a7392169085908790600401613812565b602060405180830381600087803b158015612a8d57600080fd5b505af1158015612aa1573d6000803e3d6000fd5b505050506040513d601f19601f82011682018060405250810190612ac59190613552565b612ae15760405162461bcd60e51b815260040161064f90613b1a565b50505b5050601554612af69250905087612f75565b6015819055506000806000600160009054906101000a90046001600160a01b03166001600160a01b031663504563c06040518163ffffffff1660e01b815260040160a06040518083038186803b158015612b4f57600080fd5b505afa158015612b63573d6000803e3d6000fd5b505050506040513d601f19601f82011682018060405250810190612b8791906134cb565b509295509350909150506001600160a01b038316612bb75760405162461bcd60e51b815260040161064f9061389e565b600e5460405163095ea7b360e01b81526001600160a01b039091169063095ea7b390612be99086908d906004016137d6565b602060405180830381600087803b158015612c0357600080fd5b505af1158015612c17573d6000803e3d6000fd5b505050506040513d601f19601f82011682018060405250810190612c3b9190613552565b612c575760405162461bcd60e51b815260040161064f90613edd565b84612d2d576040805161010081018252600e546001600160a01b0390811682526000548116602083015262ffffff841682840152306060830152608082018a905260a082018c905260c082018b905288811660e0830152915163414bf38960e01b8152909185169063414bf38990612cd3908490600401613f7e565b602060405180830381600087803b158015612ced57600080fd5b505af1158015612d01573d6000803e3d6000fd5b505050506040513d601f19601f82011682018060405250810190612d2591906135d6565b945050612e24565b8460011415612e24576040805160a08101909152600e54600080549092918291612d6d916001600160a01b03908116918791899183911660c087016136a5565b6040516020818303038152906040528152602001306001600160a01b031681526020018981526020018b81526020018a8152509050836001600160a01b031663c04b8d59826040518263ffffffff1660e01b8152600401612dce9190613f26565b602060405180830381600087803b158015612de857600080fd5b505af1158015612dfc573d6000803e3d6000fd5b505050506040513d601f19601f82011682018060405250810190612e2091906135d6565b9450505b7f6ad50db5d488c314f9077fc5c41c7d8bcdd86ddc409871512ddd009f21067d32338a86604051612e5793929190613706565b60405180910390a150506000600b555095945050505050565b6003546001600160a01b031681565b6000546001600160a01b031681565b60135481565b6000806000806000600160009054906101000a90046001600160a01b03166001600160a01b031663504563c06040518163ffffffff1660e01b815260040160a06040518083038186803b158015612eea57600080fd5b505afa158015612efe573d6000803e3d6000fd5b505050506040513d601f19601f82011682018060405250810190612f2291906134cb565b945094509450945094509091929394565b6000611e2083836040518060400160405280601e81526020017f536166654d6174683a207375627472616374696f6e206f766572666c6f770000815250613167565b600082820183811015611e20576040805162461bcd60e51b815260206004820152601b60248201527a536166654d6174683a206164646974696f6e206f766572666c6f7760281b604482015290519081900360640190fd5b3390565b6000828152601c60205260409020612fe990826131fe565b1561102857612ff6612fcd565b6001600160a01b0316816001600160a01b0316837f2f8788117e7eff1d82e926ec794901d17c78024a50270940304540a733656f0d60405160405180910390a45050565b6000828152601c602052604090206130529082613213565b156110285761305f612fcd565b6001600160a01b0316816001600160a01b0316837ff6391f5c32d9c69d2a47ea670b442974b53935d1edc7fd64eb21e047a839171b60405160405180910390a45050565b6000826130b257506000610e16565b828202828482816130bf57fe5b0414611e205760405162461bcd60e51b81526004018080602001828103825260218152602001806140e06021913960400191505060405180910390fd5b6000611e208383613228565b6000611e20836001600160a01b03841661328c565b6000610e16826132a4565b6000611e2083836040518060400160405280601a815260200179536166654d6174683a206469766973696f6e206279207a65726f60301b8152506132a8565b600081848411156131f65760405162461bcd60e51b81526004018080602001828103825283818151815260200191508051906020019080838360005b838110156131bb5781810151838201526020016131a3565b50505050905090810190601f1680156131e85780820380516001836020036101000a031916815260200191505b509250505060405180910390fd5b505050900390565b6000611e20836001600160a01b03841661330d565b6000611e20836001600160a01b038416613357565b8154600090821061326a5760405162461bcd60e51b815260040180806020018281038252602281526020018061403d6022913960400191505060405180910390fd5b82600001828154811061327957fe5b9060005260206000200154905092915050565b60009081526001919091016020526040902054151590565b5490565b600081836132f75760405162461bcd60e51b81526020600482018181528351602484015283519092839260449091019190850190808383600083156131bb5781810151838201526020016131a3565b50600083858161330357fe5b0495945050505050565b6000613319838361328c565b61334f57508154600181810184556000848152602080822090930184905584548482528286019093526040902091909155610e16565b506000610e16565b60008181526001830160205260408120548015613413578354600019808301919081019060009087908390811061338a57fe5b90600052602060002001549050808760000184815481106133a757fe5b6000918252602080832090910192909255828152600189810190925260409020908401905586548790806133d757fe5b60019003818190600052602060002001600090559055866001016000878152602001908152602001600020600090556001945050505050610e16565b6000915050610e16565b60405180606001604052806003906020820280368337509192915050565b60006020828403121561344c578081fd5b8135611e2081614019565b600080600080600060a0868803121561346e578081fd5b855161347981614019565b602087015190955061348a81614019565b604087015190945061349b81614019565b60608701519093506134ac81614019565b60808701519092506134bd81614019565b809150509295509295909350565b600080600080600060a086880312156134e2578081fd5b85516134ed81614019565b60208701519095506134fe81614019565b604087015190945061350f81614019565b6060870151608088015191945092506134bd81614019565b60008060408385031215613539578182fd5b823561354481614019565b946020939093013593505050565b600060208284031215613563578081fd5b8151611e208161402e565b60006020828403121561357f578081fd5b5035919050565b60008060408385031215613598578182fd5b8235915060208301356135aa81614019565b809150509250929050565b600080604083850312156135c7578182fd5b50508035926020909101359150565b6000602082840312156135e7578081fd5b5051919050565b60008060408385031215613600578182fd5b8235915060208301356135aa8161402e565b600080600080600060a08688031215613629578081fd5b853594506020860135935060408601359250606086013561364981614019565b949793965091946080013592915050565b60008151808452815b8181101561367f57602081850181015186830182015201613663565b818111156136905782602083870101525b50601f01601f19169290920160200192915050565b6001600160601b0319606096871b811682526001600160e81b031960e896871b8116601484015294871b811660178301529290941b909216602b840152921b909116602e82015260420190565b6001600160a01b0391909116815260200190565b6001600160a01b039390931683526020830191909152604082015260600190565b6001600160a01b0392831681529116602082015260400190565b6001600160a01b039586168152938516602085015291841660408401526060830152909116608082015260a00190565b6001600160a01b038781168252861660208083019190915261010082019060408301908760005b60038110156137b557815184529282019290820190600101613798565b505050508460a08301528360c08301528260e0830152979650505050505050565b6001600160a01b03929092168252602082015260400190565b6001600160a01b0393909316835260208301919091521515604082015260600190565b600060018060a01b038516825283602083015260606040830152613839606083018461365a565b95945050505050565b901515815260200190565b90815260200190565b600060208252611e20602083018461365a565b6020808252601b908201527a546f6b616d616b5374616b65723a207a65726f206164647265737360281b604082015260600190565b6020808252601a9082015279546f6b616d616b5374616b65723a756e6973776170207a65726f60301b604082015260600190565b60208082526021908201527f546f6b616d616b5374616b65723a746f6b616d616b4c6179657232207a65726f6040820152600160fd1b606082015260800190565b6020808252818101527f546f6b616d616b5374616b65723a207377617050726f7879206973207a65726f604082015260600190565b6020808252601e908201527f546f6b616d616b5374616b65723a207374616b654f66206973207a65726f0000604082015260600190565b602080825260189082015277151bdad85b585ad4dd185ad95c8e9c195c9a5bd908195b9960421b604082015260600190565b60208082526029908201527f546f6b616d616b5374616b65723a706572696f64287769746864726177616c44604082015268195b185e4a48195b9960ba1b606082015260800190565b60208082526038908201527f546f6b616d616b5374616b65723a2073776170544f4e746f57544f4e20746f6e6040820152770818985b185b98d9481a5cc81a5b9cdd59999a58da595b9d60421b606082015260800190565b60208082526039908201527f546f6b616d616b5374616b65723a2073776170544f4e746f57544f4e2077746f6040820152781b8818985b185b98d9481a5cc81a5b9cdd59999a58da595b9d603a1b606082015260800190565b602080825260149082015273151bdad85b585ad4dd185ad95c8e9313d0d2d15160621b604082015260600190565b60208082526021908201527f546f6b616d616b5374616b65723a617070726f7665416e6443616c6c206661696040820152601b60fa1b606082015260800190565b60208082526033908201527f546f6b616d616b5374616b65723a65786368616e676557544f4e746f544f5320604082015272185c1c1c9bdd99505b9910d85b1b0819985a5b606a1b606082015260800190565b6020808252601a9082015279151bdad85b585ad4dd185ad95c8e9a5b9cdd59999a58da595b9d60321b604082015260600190565b6020808252601d908201527f546f6b616d616b5374616b65723a646966666572656e74206c61796572000000604082015260600190565b6020808252818101527f546f6b616d616b5374616b65723a2077746f6e20696e73756666696369656e74604082015260600190565b6020808252602f908201527f546f6b616d616b5374616b65723a73776170544f4e746f57544f4e206170707260408201526e1bdd99505b9910d85b1b0819985a5b608a1b606082015260800190565b6020808252602a908201527f546f6b616d616b5374616b65723a20746f6e2062616c616e636520697320696e6040820152691cdd59999a58da595b9d60b21b606082015260800190565b60208082526026908201527f546f6b616d616b5374616b65723a416c72656164792050726f63657373556e5360408201526574616b696e6760d01b606082015260800190565b6020808252601c908201527b151bdad85b585ad4dd185ad95c8e9cddd85c151bd513d38819985a5b60221b604082015260600190565b6020808252601a9082015279546f6b616d616b5374616b65723a746f6b616d616b207a65726f60301b604082015260600190565b60208082526021908201527f546f6b616d616b5374616b65723a7374616b65416d6f756e74206973207a65726040820152606f60f81b606082015260800190565b60208082526031908201527f546f6b616d616b5374616b65723a5468652065786563757461626c6520626c6f60408201527018dac81a185cc81b9bdd081c185cdcd959607a1b606082015260800190565b60208082526021908201527f546f6b616d616b5374616b65723a206e6f7420617661696c61626c65206b696e6040820152601960fa1b606082015260800190565b6020808252602e908201527f546f6b616d616b5374616b65723a206e6f2077697468647261772d61626c652060408201526d185b5bdd5b9d081b9bdd081e595d60921b606082015260800190565b602080825260199082015278151bdad85b585ad4dd185ad95c8e881c195c9a5bd908195b99603a1b604082015260600190565b602080825260199082015278151bdad85b585ad4dd185ad95c8e881b9bdd0818db1bdcd959603a1b604082015260600190565b60208082526029908201527f546f6b616d616b5374616b65723a63616e277420617070726f766520756e69736040820152683bb0b82937baba32b960b91b606082015260800190565b600060208252825160a06020840152613f4260c084018261365a565b905060018060a01b0360208501511660408401526040840151606084015260608401516080840152608084015160a08401528091505092915050565b81516001600160a01b03908116825260208084015182169083015260408084015162ffffff16908301526060808401518216908301526080808401519083015260a0838101519083015260c0808401519083015260e09283015116918101919091526101000190565b968752602087019590955260408601939093526060850191909152608084015260a0830152151560c082015260e00190565b6001600160a01b0381168114610c3957600080fd5b8015158114610c3957600080fdfe456e756d657261626c655365743a20696e646578206f7574206f6620626f756e6473416363657373436f6e74726f6c3a2073656e646572206d75737420626520616e2061646d696e20746f206772616e7441636365737369626c653a2043616c6c6572206973206e6f7420616e2061646d696e416363657373436f6e74726f6c3a2073656e646572206d75737420626520616e2061646d696e20746f207265766f6b65536166654d6174683a206d756c7469706c69636174696f6e206f766572666c6f77df8b4c520ffe197c5343c6f5aec59570151ef9a492f2c624fd45ddde6135ec42416363657373436f6e74726f6c3a2063616e206f6e6c792072656e6f756e636520726f6c657320666f722073656c66a2646970667358221220560182d4e058ff5985756cbc39afb3687b5e81cd5914ab9060a45a5115f5b84564736f6c63430007060033",
  "linkReferences": {},
  "deployedLinkReferences": {}
}